{
  "_format": "hh-sol-artifact-1",
  "contractName": "RewardToken",
  "sourceName": "contracts/RewardToken.sol",
  "abi": [
    {
      "inputs": [
        {
          "internalType": "string",
          "name": "name",
          "type": "string"
        }
      ],
      "stateMutability": "nonpayable",
      "type": "constructor"
    },
    {
      "inputs": [],
      "name": "InvalidShortString",
      "type": "error"
    },
    {
      "inputs": [
        {
          "internalType": "string",
          "name": "str",
          "type": "string"
        }
      ],
      "name": "StringTooLong",
      "type": "error"
    },
    {
      "anonymous": false,
      "inputs": [
        {
          "indexed": true,
          "internalType": "address",
          "name": "owner",
          "type": "address"
        },
        {
          "indexed": true,
          "internalType": "address",
          "name": "spender",
          "type": "address"
        },
        {
          "indexed": false,
          "internalType": "uint256",
          "name": "value",
          "type": "uint256"
        }
      ],
      "name": "Approval",
      "type": "event"
    },
    {
      "anonymous": false,
      "inputs": [
        {
          "indexed": true,
          "internalType": "address",
          "name": "delegator",
          "type": "address"
        },
        {
          "indexed": true,
          "internalType": "address",
          "name": "fromDelegate",
          "type": "address"
        },
        {
          "indexed": true,
          "internalType": "address",
          "name": "toDelegate",
          "type": "address"
        }
      ],
      "name": "DelegateChanged",
      "type": "event"
    },
    {
      "anonymous": false,
      "inputs": [
        {
          "indexed": true,
          "internalType": "address",
          "name": "delegate",
          "type": "address"
        },
        {
          "indexed": false,
          "internalType": "uint256",
          "name": "previousBalance",
          "type": "uint256"
        },
        {
          "indexed": false,
          "internalType": "uint256",
          "name": "newBalance",
          "type": "uint256"
        }
      ],
      "name": "DelegateVotesChanged",
      "type": "event"
    },
    {
      "anonymous": false,
      "inputs": [],
      "name": "EIP712DomainChanged",
      "type": "event"
    },
    {
      "anonymous": false,
      "inputs": [
        {
          "indexed": true,
          "internalType": "address",
          "name": "previousOwner",
          "type": "address"
        },
        {
          "indexed": true,
          "internalType": "address",
          "name": "newOwner",
          "type": "address"
        }
      ],
      "name": "OwnershipTransferred",
      "type": "event"
    },
    {
      "anonymous": false,
      "inputs": [
        {
          "indexed": true,
          "internalType": "address",
          "name": "from",
          "type": "address"
        },
        {
          "indexed": true,
          "internalType": "address",
          "name": "to",
          "type": "address"
        },
        {
          "indexed": false,
          "internalType": "uint256",
          "name": "value",
          "type": "uint256"
        }
      ],
      "name": "Transfer",
      "type": "event"
    },
    {
      "inputs": [],
      "name": "CLOCK_MODE",
      "outputs": [
        {
          "internalType": "string",
          "name": "",
          "type": "string"
        }
      ],
      "stateMutability": "view",
      "type": "function"
    },
    {
      "inputs": [],
      "name": "DOMAIN_SEPARATOR",
      "outputs": [
        {
          "internalType": "bytes32",
          "name": "",
          "type": "bytes32"
        }
      ],
      "stateMutability": "view",
      "type": "function"
    },
    {
      "inputs": [
        {
          "internalType": "address",
          "name": "owner",
          "type": "address"
        },
        {
          "internalType": "address",
          "name": "spender",
          "type": "address"
        }
      ],
      "name": "allowance",
      "outputs": [
        {
          "internalType": "uint256",
          "name": "",
          "type": "uint256"
        }
      ],
      "stateMutability": "view",
      "type": "function"
    },
    {
      "inputs": [
        {
          "internalType": "address",
          "name": "spender",
          "type": "address"
        },
        {
          "internalType": "uint256",
          "name": "amount",
          "type": "uint256"
        }
      ],
      "name": "approve",
      "outputs": [
        {
          "internalType": "bool",
          "name": "",
          "type": "bool"
        }
      ],
      "stateMutability": "nonpayable",
      "type": "function"
    },
    {
      "inputs": [
        {
          "internalType": "address",
          "name": "account",
          "type": "address"
        }
      ],
      "name": "balanceOf",
      "outputs": [
        {
          "internalType": "uint256",
          "name": "",
          "type": "uint256"
        }
      ],
      "stateMutability": "view",
      "type": "function"
    },
    {
      "inputs": [
        {
          "internalType": "address",
          "name": "account",
          "type": "address"
        },
        {
          "internalType": "uint32",
          "name": "pos",
          "type": "uint32"
        }
      ],
      "name": "checkpoints",
      "outputs": [
        {
          "components": [
            {
              "internalType": "uint32",
              "name": "fromBlock",
              "type": "uint32"
            },
            {
              "internalType": "uint224",
              "name": "votes",
              "type": "uint224"
            }
          ],
          "internalType": "struct ERC20Votes.Checkpoint",
          "name": "",
          "type": "tuple"
        }
      ],
      "stateMutability": "view",
      "type": "function"
    },
    {
      "inputs": [],
      "name": "clock",
      "outputs": [
        {
          "internalType": "uint48",
          "name": "",
          "type": "uint48"
        }
      ],
      "stateMutability": "view",
      "type": "function"
    },
    {
      "inputs": [],
      "name": "decimals",
      "outputs": [
        {
          "internalType": "uint8",
          "name": "",
          "type": "uint8"
        }
      ],
      "stateMutability": "view",
      "type": "function"
    },
    {
      "inputs": [
        {
          "internalType": "address",
          "name": "spender",
          "type": "address"
        },
        {
          "internalType": "uint256",
          "name": "subtractedValue",
          "type": "uint256"
        }
      ],
      "name": "decreaseAllowance",
      "outputs": [
        {
          "internalType": "bool",
          "name": "",
          "type": "bool"
        }
      ],
      "stateMutability": "nonpayable",
      "type": "function"
    },
    {
      "inputs": [
        {
          "internalType": "address",
          "name": "delegatee",
          "type": "address"
        }
      ],
      "name": "delegate",
      "outputs": [],
      "stateMutability": "nonpayable",
      "type": "function"
    },
    {
      "inputs": [
        {
          "internalType": "address",
          "name": "delegatee",
          "type": "address"
        },
        {
          "internalType": "uint256",
          "name": "nonce",
          "type": "uint256"
        },
        {
          "internalType": "uint256",
          "name": "expiry",
          "type": "uint256"
        },
        {
          "internalType": "uint8",
          "name": "v",
          "type": "uint8"
        },
        {
          "internalType": "bytes32",
          "name": "r",
          "type": "bytes32"
        },
        {
          "internalType": "bytes32",
          "name": "s",
          "type": "bytes32"
        }
      ],
      "name": "delegateBySig",
      "outputs": [],
      "stateMutability": "nonpayable",
      "type": "function"
    },
    {
      "inputs": [
        {
          "internalType": "address",
          "name": "account",
          "type": "address"
        }
      ],
      "name": "delegates",
      "outputs": [
        {
          "internalType": "address",
          "name": "",
          "type": "address"
        }
      ],
      "stateMutability": "view",
      "type": "function"
    },
    {
      "inputs": [],
      "name": "eip712Domain",
      "outputs": [
        {
          "internalType": "bytes1",
          "name": "fields",
          "type": "bytes1"
        },
        {
          "internalType": "string",
          "name": "name",
          "type": "string"
        },
        {
          "internalType": "string",
          "name": "version",
          "type": "string"
        },
        {
          "internalType": "uint256",
          "name": "chainId",
          "type": "uint256"
        },
        {
          "internalType": "address",
          "name": "verifyingContract",
          "type": "address"
        },
        {
          "internalType": "bytes32",
          "name": "salt",
          "type": "bytes32"
        },
        {
          "internalType": "uint256[]",
          "name": "extensions",
          "type": "uint256[]"
        }
      ],
      "stateMutability": "view",
      "type": "function"
    },
    {
      "inputs": [
        {
          "internalType": "uint256",
          "name": "timepoint",
          "type": "uint256"
        }
      ],
      "name": "getPastTotalSupply",
      "outputs": [
        {
          "internalType": "uint256",
          "name": "",
          "type": "uint256"
        }
      ],
      "stateMutability": "view",
      "type": "function"
    },
    {
      "inputs": [
        {
          "internalType": "address",
          "name": "account",
          "type": "address"
        },
        {
          "internalType": "uint256",
          "name": "timepoint",
          "type": "uint256"
        }
      ],
      "name": "getPastVotes",
      "outputs": [
        {
          "internalType": "uint256",
          "name": "",
          "type": "uint256"
        }
      ],
      "stateMutability": "view",
      "type": "function"
    },
    {
      "inputs": [
        {
          "internalType": "address",
          "name": "account",
          "type": "address"
        }
      ],
      "name": "getVotes",
      "outputs": [
        {
          "internalType": "uint256",
          "name": "",
          "type": "uint256"
        }
      ],
      "stateMutability": "view",
      "type": "function"
    },
    {
      "inputs": [
        {
          "internalType": "address",
          "name": "spender",
          "type": "address"
        },
        {
          "internalType": "uint256",
          "name": "addedValue",
          "type": "uint256"
        }
      ],
      "name": "increaseAllowance",
      "outputs": [
        {
          "internalType": "bool",
          "name": "",
          "type": "bool"
        }
      ],
      "stateMutability": "nonpayable",
      "type": "function"
    },
    {
      "inputs": [
        {
          "internalType": "address",
          "name": "to",
          "type": "address"
        },
        {
          "internalType": "uint256",
          "name": "amount",
          "type": "uint256"
        }
      ],
      "name": "mint",
      "outputs": [],
      "stateMutability": "nonpayable",
      "type": "function"
    },
    {
      "inputs": [],
      "name": "name",
      "outputs": [
        {
          "internalType": "string",
          "name": "",
          "type": "string"
        }
      ],
      "stateMutability": "view",
      "type": "function"
    },
    {
      "inputs": [
        {
          "internalType": "address",
          "name": "owner",
          "type": "address"
        }
      ],
      "name": "nonces",
      "outputs": [
        {
          "internalType": "uint256",
          "name": "",
          "type": "uint256"
        }
      ],
      "stateMutability": "view",
      "type": "function"
    },
    {
      "inputs": [
        {
          "internalType": "address",
          "name": "account",
          "type": "address"
        }
      ],
      "name": "numCheckpoints",
      "outputs": [
        {
          "internalType": "uint32",
          "name": "",
          "type": "uint32"
        }
      ],
      "stateMutability": "view",
      "type": "function"
    },
    {
      "inputs": [],
      "name": "owner",
      "outputs": [
        {
          "internalType": "address",
          "name": "",
          "type": "address"
        }
      ],
      "stateMutability": "view",
      "type": "function"
    },
    {
      "inputs": [
        {
          "internalType": "address",
          "name": "owner",
          "type": "address"
        },
        {
          "internalType": "address",
          "name": "spender",
          "type": "address"
        },
        {
          "internalType": "uint256",
          "name": "value",
          "type": "uint256"
        },
        {
          "internalType": "uint256",
          "name": "deadline",
          "type": "uint256"
        },
        {
          "internalType": "uint8",
          "name": "v",
          "type": "uint8"
        },
        {
          "internalType": "bytes32",
          "name": "r",
          "type": "bytes32"
        },
        {
          "internalType": "bytes32",
          "name": "s",
          "type": "bytes32"
        }
      ],
      "name": "permit",
      "outputs": [],
      "stateMutability": "nonpayable",
      "type": "function"
    },
    {
      "inputs": [],
      "name": "renounceOwnership",
      "outputs": [],
      "stateMutability": "nonpayable",
      "type": "function"
    },
    {
      "inputs": [],
      "name": "symbol",
      "outputs": [
        {
          "internalType": "string",
          "name": "",
          "type": "string"
        }
      ],
      "stateMutability": "view",
      "type": "function"
    },
    {
      "inputs": [],
      "name": "totalSupply",
      "outputs": [
        {
          "internalType": "uint256",
          "name": "",
          "type": "uint256"
        }
      ],
      "stateMutability": "view",
      "type": "function"
    },
    {
      "inputs": [
        {
          "internalType": "address",
          "name": "to",
          "type": "address"
        },
        {
          "internalType": "uint256",
          "name": "amount",
          "type": "uint256"
        }
      ],
      "name": "transfer",
      "outputs": [
        {
          "internalType": "bool",
          "name": "",
          "type": "bool"
        }
      ],
      "stateMutability": "nonpayable",
      "type": "function"
    },
    {
      "inputs": [
        {
          "internalType": "address",
          "name": "from",
          "type": "address"
        },
        {
          "internalType": "address",
          "name": "to",
          "type": "address"
        },
        {
          "internalType": "uint256",
          "name": "amount",
          "type": "uint256"
        }
      ],
      "name": "transferFrom",
      "outputs": [
        {
          "internalType": "bool",
          "name": "",
          "type": "bool"
        }
      ],
      "stateMutability": "nonpayable",
      "type": "function"
    },
    {
      "inputs": [
        {
          "internalType": "address",
          "name": "newOwner",
          "type": "address"
        }
      ],
      "name": "transferOwnership",
      "outputs": [],
      "stateMutability": "nonpayable",
      "type": "function"
    }
  ],
  "bytecode": "0x6101606040523480156200001257600080fd5b50604051620027833803806200278383398101604081905262000035916200026e565b8080604051806040016040528060018152602001603160f81b815250836040518060400160405280600381526020016212519560ea1b81525081600390816200007f9190620003b5565b5060046200008e8282620003b5565b50620000a0915083905060056200015b565b61012052620000b18160066200015b565b61014052815160208084019190912060e052815190820120610100524660a0526200013f60e05161010051604080517f8b73c3c69bb8fe3d512ecc4cf759cc79239f7b179b0ffacaa9a75d522b39400f60208201529081019290925260608201524660808201523060a082015260009060c00160405160208183030381529060405280519060200120905090565b60805250503060c05250620001543362000194565b50620004db565b60006020835110156200017b576200017383620001e6565b90506200018e565b81620001888482620003b5565b5060ff90505b92915050565b600c80546001600160a01b038381166001600160a01b0319831681179093556040519116919082907f8be0079c531659141344cd1fd0a4f28419497f9722a3daafe3b4186f6b6457e090600090a35050565b600080829050601f815111156200021d578260405163305a27a960e01b815260040162000214919062000481565b60405180910390fd5b80516200022a82620004b6565b179392505050565b634e487b7160e01b600052604160045260246000fd5b60005b83811015620002655781810151838201526020016200024b565b50506000910152565b6000602082840312156200028157600080fd5b81516001600160401b03808211156200029957600080fd5b818401915084601f830112620002ae57600080fd5b815181811115620002c357620002c362000232565b604051601f8201601f19908116603f01168101908382118183101715620002ee57620002ee62000232565b816040528281528760208487010111156200030857600080fd5b6200031b83602083016020880162000248565b979650505050505050565b600181811c908216806200033b57607f821691505b6020821081036200035c57634e487b7160e01b600052602260045260246000fd5b50919050565b601f821115620003b057600081815260208120601f850160051c810160208610156200038b5750805b601f850160051c820191505b81811015620003ac5782815560010162000397565b5050505b505050565b81516001600160401b03811115620003d157620003d162000232565b620003e981620003e2845462000326565b8462000362565b602080601f831160018114620004215760008415620004085750858301515b600019600386901b1c1916600185901b178555620003ac565b600085815260208120601f198616915b82811015620004525788860151825594840194600190910190840162000431565b5085821015620004715787850151600019600388901b60f8161c191681555b5050505050600190811b01905550565b6020815260008251806020840152620004a281604085016020870162000248565b601f01601f19169190910160400192915050565b805160208083015191908110156200035c5760001960209190910360031b1b16919050565b60805160a05160c05160e05161010051610120516101405161224d620005366000396000610752015260006107270152600061110f015260006110e7015260006110420152600061106c01526000611096015261224d6000f3fe608060405234801561001057600080fd5b50600436106101cf5760003560e01c8063715018a6116101045780639ab24eb0116100a2578063d505accf11610071578063d505accf14610409578063dd62ed3e1461041c578063f1127ed81461042f578063f2fde38b1461046c57600080fd5b80639ab24eb0146103bd578063a457c2d7146103d0578063a9059cbb146103e3578063c3cda520146103f657600080fd5b80638da5cb5b116100de5780638da5cb5b146103725780638e539e8c1461038357806391ddadf41461039657806395d89b41146103b557600080fd5b8063715018a61461033c5780637ecebe001461034457806384b0196e1461035757600080fd5b80633a46b1a811610171578063587cde1e1161014b578063587cde1e146102945780635c19a95c146102d85780636fcfff45146102eb57806370a082311461031357600080fd5b80633a46b1a81461026457806340c10f19146102775780634bf5d7e91461028c57600080fd5b806323b872dd116101ad57806323b872dd14610227578063313ce5671461023a5780633644e51514610249578063395093511461025157600080fd5b806306fdde03146101d4578063095ea7b3146101f257806318160ddd14610215575b600080fd5b6101dc61047f565b6040516101e99190611e9e565b60405180910390f35b610205610200366004611ecd565b610511565b60405190151581526020016101e9565b6002545b6040519081526020016101e9565b610205610235366004611ef7565b61052b565b604051601281526020016101e9565b61021961054f565b61020561025f366004611ecd565b61055e565b610219610272366004611ecd565b610580565b61028a610285366004611ecd565b61060a565b005b6101dc610620565b6102c06102a2366004611f33565b6001600160a01b039081166000908152600960205260409020541690565b6040516001600160a01b0390911681526020016101e9565b61028a6102e6366004611f33565b6106b8565b6102fe6102f9366004611f33565b6106c5565b60405163ffffffff90911681526020016101e9565b610219610321366004611f33565b6001600160a01b031660009081526020819052604090205490565b61028a6106e7565b610219610352366004611f33565b6106fb565b61035f610719565b6040516101e99796959493929190611f4e565b600c546001600160a01b03166102c0565b610219610391366004611fe4565b6107a2565b61039e610809565b60405165ffffffffffff90911681526020016101e9565b6101dc610814565b6102196103cb366004611f33565b610823565b6102056103de366004611ecd565b6108a5565b6102056103f1366004611ecd565b610920565b61028a61040436600461200e565b61092e565b61028a610417366004612066565b610a64565b61021961042a3660046120d0565b610bc8565b61044261043d366004612103565b610bf3565b60408051825163ffffffff1681526020928301516001600160e01b031692810192909252016101e9565b61028a61047a366004611f33565b610c77565b60606003805461048e90612143565b80601f01602080910402602001604051908101604052809291908181526020018280546104ba90612143565b80156105075780601f106104dc57610100808354040283529160200191610507565b820191906000526020600020905b8154815290600101906020018083116104ea57829003601f168201915b5050505050905090565b60003361051f818585610ced565b60019150505b92915050565b600033610539858285610e11565b610544858585610e8b565b506001949350505050565b6000610559611035565b905090565b60003361051f8185856105718383610bc8565b61057b919061218d565b610ced565b600061058a610809565b65ffffffffffff1682106105e15760405162461bcd60e51b815260206004820152601960248201527804552433230566f7465733a20667574757265206c6f6f6b757603c1b60448201526064015b60405180910390fd5b6001600160a01b0383166000908152600a602052604090206106039083611160565b9392505050565b610612611249565b61061c82826112a3565b5050565b60604361062b610809565b65ffffffffffff16146106805760405162461bcd60e51b815260206004820152601d60248201527f4552433230566f7465733a2062726f6b656e20636c6f636b206d6f646500000060448201526064016105d8565b5060408051808201909152601d81527f6d6f64653d626c6f636b6e756d6265722666726f6d3d64656661756c74000000602082015290565b6106c233826112ad565b50565b6001600160a01b0381166000908152600a602052604081205461052590611326565b6106ef611249565b6106f9600061138f565b565b6001600160a01b038116600090815260076020526040812054610525565b60006060808280808361074d7f000000000000000000000000000000000000000000000000000000000000000060056113e1565b6107787f000000000000000000000000000000000000000000000000000000000000000060066113e1565b60408051600080825260208201909252600f60f81b9b939a50919850469750309650945092509050565b60006107ac610809565b65ffffffffffff1682106107fe5760405162461bcd60e51b815260206004820152601960248201527804552433230566f7465733a20667574757265206c6f6f6b757603c1b60448201526064016105d8565b610525600b83611160565b60006105594361148c565b60606004805461048e90612143565b6001600160a01b0381166000908152600a60205260408120548015610892576001600160a01b0383166000908152600a6020526040902080546000198301908110610870576108706121a0565b60009182526020909120015464010000000090046001600160e01b0316610895565b60005b6001600160e01b03169392505050565b600033816108b38286610bc8565b9050838110156109135760405162461bcd60e51b815260206004820152602560248201527f45524332303a2064656372656173656420616c6c6f77616e63652062656c6f77604482015264207a65726f60d81b60648201526084016105d8565b6105448286868403610ced565b60003361051f818585610e8b565b8342111561097e5760405162461bcd60e51b815260206004820152601d60248201527f4552433230566f7465733a207369676e6174757265206578706972656400000060448201526064016105d8565b604080517fe48329057bfd03d55e49b547132e39cffd9c1820ad7b9d4c5307691425d15adf60208201526001600160a01b0388169181019190915260608101869052608081018590526000906109f8906109f09060a001604051602081830303815290604052805190602001206114f3565b858585611520565b9050610a0381611548565b8614610a515760405162461bcd60e51b815260206004820152601960248201527f4552433230566f7465733a20696e76616c6964206e6f6e63650000000000000060448201526064016105d8565b610a5b81886112ad565b50505050505050565b83421115610ab45760405162461bcd60e51b815260206004820152601d60248201527f45524332305065726d69743a206578706972656420646561646c696e6500000060448201526064016105d8565b60007f6e71edae12b1b97f4d1f60370fef10105fa2faae0126114a169c64845d6126c9888888610ae38c611548565b6040805160208101969096526001600160a01b0394851690860152929091166060840152608083015260a082015260c0810186905260e0016040516020818303038152906040528051906020012090506000610b3e826114f3565b90506000610b4e82878787611520565b9050896001600160a01b0316816001600160a01b031614610bb15760405162461bcd60e51b815260206004820152601e60248201527f45524332305065726d69743a20696e76616c6964207369676e6174757265000060448201526064016105d8565b610bbc8a8a8a610ced565b50505050505050505050565b6001600160a01b03918216600090815260016020908152604080832093909416825291909152205490565b60408051808201909152600080825260208201526001600160a01b0383166000908152600a60205260409020805463ffffffff8416908110610c3757610c376121a0565b60009182526020918290206040805180820190915291015463ffffffff8116825264010000000090046001600160e01b0316918101919091529392505050565b610c7f611249565b6001600160a01b038116610ce45760405162461bcd60e51b815260206004820152602660248201527f4f776e61626c653a206e6577206f776e657220697320746865207a65726f206160448201526564647265737360d01b60648201526084016105d8565b6106c28161138f565b6001600160a01b038316610d4f5760405162461bcd60e51b8152602060048201526024808201527f45524332303a20617070726f76652066726f6d20746865207a65726f206164646044820152637265737360e01b60648201526084016105d8565b6001600160a01b038216610db05760405162461bcd60e51b815260206004820152602260248201527f45524332303a20617070726f766520746f20746865207a65726f206164647265604482015261737360f01b60648201526084016105d8565b6001600160a01b0383811660008181526001602090815260408083209487168084529482529182902085905590518481527f8c5be1e5ebec7d5bd14f71427d1e84f3dd0314c0f7b2291e5b200ac8c7c3b925910160405180910390a3505050565b6000610e1d8484610bc8565b90506000198114610e855781811015610e785760405162461bcd60e51b815260206004820152601d60248201527f45524332303a20696e73756666696369656e7420616c6c6f77616e636500000060448201526064016105d8565b610e858484848403610ced565b50505050565b6001600160a01b038316610eef5760405162461bcd60e51b815260206004820152602560248201527f45524332303a207472616e736665722066726f6d20746865207a65726f206164604482015264647265737360d81b60648201526084016105d8565b6001600160a01b038216610f515760405162461bcd60e51b815260206004820152602360248201527f45524332303a207472616e7366657220746f20746865207a65726f206164647260448201526265737360e81b60648201526084016105d8565b6001600160a01b03831660009081526020819052604090205481811015610fc95760405162461bcd60e51b815260206004820152602660248201527f45524332303a207472616e7366657220616d6f756e7420657863656564732062604482015265616c616e636560d01b60648201526084016105d8565b6001600160a01b03848116600081815260208181526040808320878703905593871680835291849020805487019055925185815290927fddf252ad1be2c89b69c2b068fc378daa952ba7f163c4a11628f55a4df523b3ef910160405180910390a3610e85848484611575565b6000306001600160a01b037f00000000000000000000000000000000000000000000000000000000000000001614801561108e57507f000000000000000000000000000000000000000000000000000000000000000046145b156110b857507f000000000000000000000000000000000000000000000000000000000000000090565b610559604080517f8b73c3c69bb8fe3d512ecc4cf759cc79239f7b179b0ffacaa9a75d522b39400f60208201527f0000000000000000000000000000000000000000000000000000000000000000918101919091527f000000000000000000000000000000000000000000000000000000000000000060608201524660808201523060a082015260009060c00160405160208183030381529060405280519060200120905090565b8154600090818160058111156111ba57600061117b84611580565b61118590856121b6565b600088815260209020909150869082015463ffffffff1611156111aa578091506111b8565b6111b581600161218d565b92505b505b808210156112075760006111ce8383611668565b600088815260209020909150869082015463ffffffff1611156111f357809150611201565b6111fe81600161218d565b92505b506111ba565b8015611233576000868152602090208101600019015464010000000090046001600160e01b0316611236565b60005b6001600160e01b03169695505050505050565b600c546001600160a01b031633146106f95760405162461bcd60e51b815260206004820181905260248201527f4f776e61626c653a2063616c6c6572206973206e6f7420746865206f776e657260448201526064016105d8565b61061c8282611683565b6001600160a01b038281166000818152600960208181526040808420805485845282862054949093528787166001600160a01b03198416811790915590519190951694919391928592917f3134e8a2e6d97e929a7e54011ea5485d7d196dd5f0ba4d4ef95803e8e3fc257f9190a4610e8582848361170d565b600063ffffffff82111561138b5760405162461bcd60e51b815260206004820152602660248201527f53616665436173743a2076616c756520646f65736e27742066697420696e203360448201526532206269747360d01b60648201526084016105d8565b5090565b600c80546001600160a01b038381166001600160a01b0319831681179093556040519116919082907f8be0079c531659141344cd1fd0a4f28419497f9722a3daafe3b4186f6b6457e090600090a35050565b606060ff83146113fb576113f48361184a565b9050610525565b81805461140790612143565b80601f016020809104026020016040519081016040528092919081815260200182805461143390612143565b80156114805780601f1061145557610100808354040283529160200191611480565b820191906000526020600020905b81548152906001019060200180831161146357829003601f168201915b50505050509050610525565b600065ffffffffffff82111561138b5760405162461bcd60e51b815260206004820152602660248201527f53616665436173743a2076616c756520646f65736e27742066697420696e203460448201526538206269747360d01b60648201526084016105d8565b6000610525611500611035565b8360405161190160f01b8152600281019290925260228201526042902090565b600080600061153187878787611889565b9150915061153e8161194d565b5095945050505050565b6001600160a01b03811660009081526007602052604090208054600181018255905b50919050565b505050565b611570838383611a97565b60008160000361159257506000919050565b6000600161159f84611ac9565b901c6001901b905060018184816115b8576115b86121c9565b048201901c905060018184816115d0576115d06121c9565b048201901c905060018184816115e8576115e86121c9565b048201901c90506001818481611600576116006121c9565b048201901c90506001818481611618576116186121c9565b048201901c90506001818481611630576116306121c9565b048201901c90506001818481611648576116486121c9565b048201901c905061060381828581611662576116626121c9565b04611b5d565b600061167760028484186121df565b6106039084841661218d565b61168d8282611b73565b6002546001600160e01b0310156116ff5760405162461bcd60e51b815260206004820152603060248201527f4552433230566f7465733a20746f74616c20737570706c79207269736b73206f60448201526f766572666c6f77696e6720766f74657360801b60648201526084016105d8565b610e85600b611c3a83611c46565b816001600160a01b0316836001600160a01b03161415801561172f5750600081115b15611570576001600160a01b038316156117bd576001600160a01b0383166000908152600a60205260408120819061176a90611dbb85611c46565b91509150846001600160a01b03167fdec2bacdd2f05b59de34da9b523dff8be42e5e38e818c82fdb0bae774387a72483836040516117b2929190918252602082015260400190565b60405180910390a250505b6001600160a01b03821615611570576001600160a01b0382166000908152600a6020526040812081906117f390611c3a85611c46565b91509150836001600160a01b03167fdec2bacdd2f05b59de34da9b523dff8be42e5e38e818c82fdb0bae774387a724838360405161183b929190918252602082015260400190565b60405180910390a25050505050565b6060600061185783611dc7565b604080516020808252818301909252919250600091906020820181803683375050509182525060208101929092525090565b6000807f7fffffffffffffffffffffffffffffff5d576e7357a4501ddfe92f46681b20a08311156118c05750600090506003611944565b6040805160008082526020820180845289905260ff881692820192909252606081018690526080810185905260019060a0016020604051602081039080840390855afa158015611914573d6000803e3d6000fd5b5050604051601f1901519150506001600160a01b03811661193d57600060019250925050611944565b9150600090505b94509492505050565b600081600481111561196157611961612201565b036119695750565b600181600481111561197d5761197d612201565b036119ca5760405162461bcd60e51b815260206004820152601860248201527f45434453413a20696e76616c6964207369676e6174757265000000000000000060448201526064016105d8565b60028160048111156119de576119de612201565b03611a2b5760405162461bcd60e51b815260206004820152601f60248201527f45434453413a20696e76616c6964207369676e6174757265206c656e6774680060448201526064016105d8565b6003816004811115611a3f57611a3f612201565b036106c25760405162461bcd60e51b815260206004820152602260248201527f45434453413a20696e76616c6964207369676e6174757265202773272076616c604482015261756560f01b60648201526084016105d8565b6001600160a01b038381166000908152600960205260408082205485841683529120546115709291821691168361170d565b600080608083901c15611ade57608092831c92015b604083901c15611af057604092831c92015b602083901c15611b0257602092831c92015b601083901c15611b1457601092831c92015b600883901c15611b2657600892831c92015b600483901c15611b3857600492831c92015b600283901c15611b4a57600292831c92015b600183901c156105255760010192915050565b6000818310611b6c5781610603565b5090919050565b6001600160a01b038216611bc95760405162461bcd60e51b815260206004820152601f60248201527f45524332303a206d696e7420746f20746865207a65726f20616464726573730060448201526064016105d8565b8060026000828254611bdb919061218d565b90915550506001600160a01b038216600081815260208181526040808320805486019055518481527fddf252ad1be2c89b69c2b068fc378daa952ba7f163c4a11628f55a4df523b3ef910160405180910390a361061c60008383611575565b6000610603828461218d565b82546000908190818115611c935760008781526020902082016000190160408051808201909152905463ffffffff8116825264010000000090046001600160e01b03166020820152611ca8565b60408051808201909152600080825260208201525b905080602001516001600160e01b03169350611cc884868863ffffffff16565b9250600082118015611cf25750611cdd610809565b65ffffffffffff16816000015163ffffffff16145b15611d3757611d0083611def565b60008881526020902083016000190180546001600160e01b03929092166401000000000263ffffffff909216919091179055611db1565b866040518060400160405280611d5b611d4e610809565b65ffffffffffff16611326565b63ffffffff168152602001611d6f86611def565b6001600160e01b0390811690915282546001810184556000938452602093849020835194909301519091166401000000000263ffffffff909316929092179101555b5050935093915050565b600061060382846121b6565b600060ff8216601f81111561052557604051632cd44ac360e21b815260040160405180910390fd5b60006001600160e01b0382111561138b5760405162461bcd60e51b815260206004820152602760248201527f53616665436173743a2076616c756520646f65736e27742066697420696e20326044820152663234206269747360c81b60648201526084016105d8565b6000815180845260005b81811015611e7e57602081850181015186830182015201611e62565b506000602082860101526020601f19601f83011685010191505092915050565b6020815260006106036020830184611e58565b80356001600160a01b0381168114611ec857600080fd5b919050565b60008060408385031215611ee057600080fd5b611ee983611eb1565b946020939093013593505050565b600080600060608486031215611f0c57600080fd5b611f1584611eb1565b9250611f2360208501611eb1565b9150604084013590509250925092565b600060208284031215611f4557600080fd5b61060382611eb1565b60ff60f81b881681526000602060e081840152611f6e60e084018a611e58565b8381036040850152611f80818a611e58565b606085018990526001600160a01b038816608086015260a0850187905284810360c0860152855180825283870192509083019060005b81811015611fd257835183529284019291840191600101611fb6565b50909c9b505050505050505050505050565b600060208284031215611ff657600080fd5b5035919050565b803560ff81168114611ec857600080fd5b60008060008060008060c0878903121561202757600080fd5b61203087611eb1565b9550602087013594506040870135935061204c60608801611ffd565b92506080870135915060a087013590509295509295509295565b600080600080600080600060e0888a03121561208157600080fd5b61208a88611eb1565b965061209860208901611eb1565b955060408801359450606088013593506120b460808901611ffd565b925060a0880135915060c0880135905092959891949750929550565b600080604083850312156120e357600080fd5b6120ec83611eb1565b91506120fa60208401611eb1565b90509250929050565b6000806040838503121561211657600080fd5b61211f83611eb1565b9150602083013563ffffffff8116811461213857600080fd5b809150509250929050565b600181811c9082168061215757607f821691505b60208210810361156a57634e487b7160e01b600052602260045260246000fd5b634e487b7160e01b600052601160045260246000fd5b8082018082111561052557610525612177565b634e487b7160e01b600052603260045260246000fd5b8181038181111561052557610525612177565b634e487b7160e01b600052601260045260246000fd5b6000826121fc57634e487b7160e01b600052601260045260246000fd5b500490565b634e487b7160e01b600052602160045260246000fdfea26469706673582212209318b6a5773169f7bda3f4ccdd0f85339a1eebae97db1fcdbd3433f00b87b17a64736f6c63430008140033",
  "linkReferences": {},
  "deployedLinkReferences": {}
}