{
  "_format": "hh-sol-artifact-1",
  "contractName": "ProjectDAO",
  "sourceName": "contracts/ProjectDAO.sol",
  "abi": [
    {
      "inputs": [
        {
          "internalType": "address",
          "name": "_fundingContract",
          "type": "address"
        },
        {
          "internalType": "address",
          "name": "_rewardToken",
          "type": "address"
        }
      ],
      "stateMutability": "nonpayable",
      "type": "constructor"
    },
    {
      "inputs": [],
      "name": "Empty",
      "type": "error"
    },
    {
      "inputs": [],
      "name": "InvalidShortString",
      "type": "error"
    },
    {
      "inputs": [
        {
          "internalType": "string",
          "name": "str",
          "type": "string"
        }
      ],
      "name": "StringTooLong",
      "type": "error"
    },
    {
      "anonymous": false,
      "inputs": [],
      "name": "EIP712DomainChanged",
      "type": "event"
    },
    {
      "anonymous": false,
      "inputs": [
        {
          "indexed": false,
          "internalType": "uint256",
          "name": "proposalId",
          "type": "uint256"
        }
      ],
      "name": "ProposalCanceled",
      "type": "event"
    },
    {
      "anonymous": false,
      "inputs": [
        {
          "indexed": false,
          "internalType": "uint256",
          "name": "proposalId",
          "type": "uint256"
        },
        {
          "indexed": false,
          "internalType": "address",
          "name": "proposer",
          "type": "address"
        },
        {
          "indexed": false,
          "internalType": "address[]",
          "name": "targets",
          "type": "address[]"
        },
        {
          "indexed": false,
          "internalType": "uint256[]",
          "name": "values",
          "type": "uint256[]"
        },
        {
          "indexed": false,
          "internalType": "string[]",
          "name": "signatures",
          "type": "string[]"
        },
        {
          "indexed": false,
          "internalType": "bytes[]",
          "name": "calldatas",
          "type": "bytes[]"
        },
        {
          "indexed": false,
          "internalType": "uint256",
          "name": "voteStart",
          "type": "uint256"
        },
        {
          "indexed": false,
          "internalType": "uint256",
          "name": "voteEnd",
          "type": "uint256"
        },
        {
          "indexed": false,
          "internalType": "string",
          "name": "description",
          "type": "string"
        }
      ],
      "name": "ProposalCreated",
      "type": "event"
    },
    {
      "anonymous": false,
      "inputs": [
        {
          "indexed": true,
          "internalType": "uint256",
          "name": "projectId",
          "type": "uint256"
        },
        {
          "indexed": true,
          "internalType": "uint256",
          "name": "proposalId",
          "type": "uint256"
        },
        {
          "indexed": false,
          "internalType": "string",
          "name": "description",
          "type": "string"
        },
        {
          "indexed": false,
          "internalType": "uint256",
          "name": "deadline",
          "type": "uint256"
        }
      ],
      "name": "ProposalCreated",
      "type": "event"
    },
    {
      "anonymous": false,
      "inputs": [
        {
          "indexed": false,
          "internalType": "uint256",
          "name": "proposalId",
          "type": "uint256"
        }
      ],
      "name": "ProposalExecuted",
      "type": "event"
    },
    {
      "anonymous": false,
      "inputs": [
        {
          "indexed": false,
          "internalType": "uint256",
          "name": "oldProposalThreshold",
          "type": "uint256"
        },
        {
          "indexed": false,
          "internalType": "uint256",
          "name": "newProposalThreshold",
          "type": "uint256"
        }
      ],
      "name": "ProposalThresholdSet",
      "type": "event"
    },
    {
      "anonymous": false,
      "inputs": [
        {
          "indexed": false,
          "internalType": "uint256",
          "name": "oldQuorumNumerator",
          "type": "uint256"
        },
        {
          "indexed": false,
          "internalType": "uint256",
          "name": "newQuorumNumerator",
          "type": "uint256"
        }
      ],
      "name": "QuorumNumeratorUpdated",
      "type": "event"
    },
    {
      "anonymous": false,
      "inputs": [
        {
          "indexed": true,
          "internalType": "address",
          "name": "voter",
          "type": "address"
        },
        {
          "indexed": false,
          "internalType": "uint256",
          "name": "proposalId",
          "type": "uint256"
        },
        {
          "indexed": false,
          "internalType": "uint8",
          "name": "support",
          "type": "uint8"
        },
        {
          "indexed": false,
          "internalType": "uint256",
          "name": "weight",
          "type": "uint256"
        },
        {
          "indexed": false,
          "internalType": "string",
          "name": "reason",
          "type": "string"
        }
      ],
      "name": "VoteCast",
      "type": "event"
    },
    {
      "anonymous": false,
      "inputs": [
        {
          "indexed": true,
          "internalType": "address",
          "name": "voter",
          "type": "address"
        },
        {
          "indexed": false,
          "internalType": "uint256",
          "name": "proposalId",
          "type": "uint256"
        },
        {
          "indexed": false,
          "internalType": "uint8",
          "name": "support",
          "type": "uint8"
        },
        {
          "indexed": false,
          "internalType": "uint256",
          "name": "weight",
          "type": "uint256"
        },
        {
          "indexed": false,
          "internalType": "string",
          "name": "reason",
          "type": "string"
        },
        {
          "indexed": false,
          "internalType": "bytes",
          "name": "params",
          "type": "bytes"
        }
      ],
      "name": "VoteCastWithParams",
      "type": "event"
    },
    {
      "anonymous": false,
      "inputs": [
        {
          "indexed": false,
          "internalType": "uint256",
          "name": "oldVotingDelay",
          "type": "uint256"
        },
        {
          "indexed": false,
          "internalType": "uint256",
          "name": "newVotingDelay",
          "type": "uint256"
        }
      ],
      "name": "VotingDelaySet",
      "type": "event"
    },
    {
      "anonymous": false,
      "inputs": [
        {
          "indexed": false,
          "internalType": "uint256",
          "name": "oldVotingPeriod",
          "type": "uint256"
        },
        {
          "indexed": false,
          "internalType": "uint256",
          "name": "newVotingPeriod",
          "type": "uint256"
        }
      ],
      "name": "VotingPeriodSet",
      "type": "event"
    },
    {
      "inputs": [],
      "name": "BALLOT_TYPEHASH",
      "outputs": [
        {
          "internalType": "bytes32",
          "name": "",
          "type": "bytes32"
        }
      ],
      "stateMutability": "view",
      "type": "function"
    },
    {
      "inputs": [],
      "name": "CLOCK_MODE",
      "outputs": [
        {
          "internalType": "string",
          "name": "",
          "type": "string"
        }
      ],
      "stateMutability": "view",
      "type": "function"
    },
    {
      "inputs": [],
      "name": "COUNTING_MODE",
      "outputs": [
        {
          "internalType": "string",
          "name": "",
          "type": "string"
        }
      ],
      "stateMutability": "pure",
      "type": "function"
    },
    {
      "inputs": [],
      "name": "EXTENDED_BALLOT_TYPEHASH",
      "outputs": [
        {
          "internalType": "bytes32",
          "name": "",
          "type": "bytes32"
        }
      ],
      "stateMutability": "view",
      "type": "function"
    },
    {
      "inputs": [
        {
          "internalType": "address[]",
          "name": "targets",
          "type": "address[]"
        },
        {
          "internalType": "uint256[]",
          "name": "values",
          "type": "uint256[]"
        },
        {
          "internalType": "bytes[]",
          "name": "calldatas",
          "type": "bytes[]"
        },
        {
          "internalType": "bytes32",
          "name": "descriptionHash",
          "type": "bytes32"
        }
      ],
      "name": "cancel",
      "outputs": [
        {
          "internalType": "uint256",
          "name": "",
          "type": "uint256"
        }
      ],
      "stateMutability": "nonpayable",
      "type": "function"
    },
    {
      "inputs": [
        {
          "internalType": "uint256",
          "name": "proposalId",
          "type": "uint256"
        },
        {
          "internalType": "uint8",
          "name": "support",
          "type": "uint8"
        }
      ],
      "name": "castVote",
      "outputs": [
        {
          "internalType": "uint256",
          "name": "",
          "type": "uint256"
        }
      ],
      "stateMutability": "nonpayable",
      "type": "function"
    },
    {
      "inputs": [
        {
          "internalType": "uint256",
          "name": "proposalId",
          "type": "uint256"
        },
        {
          "internalType": "uint8",
          "name": "support",
          "type": "uint8"
        },
        {
          "internalType": "uint8",
          "name": "v",
          "type": "uint8"
        },
        {
          "internalType": "bytes32",
          "name": "r",
          "type": "bytes32"
        },
        {
          "internalType": "bytes32",
          "name": "s",
          "type": "bytes32"
        }
      ],
      "name": "castVoteBySig",
      "outputs": [
        {
          "internalType": "uint256",
          "name": "",
          "type": "uint256"
        }
      ],
      "stateMutability": "nonpayable",
      "type": "function"
    },
    {
      "inputs": [
        {
          "internalType": "uint256",
          "name": "proposalId",
          "type": "uint256"
        },
        {
          "internalType": "uint8",
          "name": "support",
          "type": "uint8"
        },
        {
          "internalType": "string",
          "name": "reason",
          "type": "string"
        }
      ],
      "name": "castVoteWithReason",
      "outputs": [
        {
          "internalType": "uint256",
          "name": "",
          "type": "uint256"
        }
      ],
      "stateMutability": "nonpayable",
      "type": "function"
    },
    {
      "inputs": [
        {
          "internalType": "uint256",
          "name": "proposalId",
          "type": "uint256"
        },
        {
          "internalType": "uint8",
          "name": "support",
          "type": "uint8"
        },
        {
          "internalType": "string",
          "name": "reason",
          "type": "string"
        },
        {
          "internalType": "bytes",
          "name": "params",
          "type": "bytes"
        }
      ],
      "name": "castVoteWithReasonAndParams",
      "outputs": [
        {
          "internalType": "uint256",
          "name": "",
          "type": "uint256"
        }
      ],
      "stateMutability": "nonpayable",
      "type": "function"
    },
    {
      "inputs": [
        {
          "internalType": "uint256",
          "name": "proposalId",
          "type": "uint256"
        },
        {
          "internalType": "uint8",
          "name": "support",
          "type": "uint8"
        },
        {
          "internalType": "string",
          "name": "reason",
          "type": "string"
        },
        {
          "internalType": "bytes",
          "name": "params",
          "type": "bytes"
        },
        {
          "internalType": "uint8",
          "name": "v",
          "type": "uint8"
        },
        {
          "internalType": "bytes32",
          "name": "r",
          "type": "bytes32"
        },
        {
          "internalType": "bytes32",
          "name": "s",
          "type": "bytes32"
        }
      ],
      "name": "castVoteWithReasonAndParamsBySig",
      "outputs": [
        {
          "internalType": "uint256",
          "name": "",
          "type": "uint256"
        }
      ],
      "stateMutability": "nonpayable",
      "type": "function"
    },
    {
      "inputs": [],
      "name": "clock",
      "outputs": [
        {
          "internalType": "uint48",
          "name": "",
          "type": "uint48"
        }
      ],
      "stateMutability": "view",
      "type": "function"
    },
    {
      "inputs": [
        {
          "internalType": "uint256",
          "name": "projectId",
          "type": "uint256"
        },
        {
          "internalType": "string",
          "name": "description",
          "type": "string"
        },
        {
          "internalType": "enum ProjectDAO.ProposalCategory",
          "name": "category",
          "type": "uint8"
        }
      ],
      "name": "createProjectProposal",
      "outputs": [
        {
          "internalType": "uint256",
          "name": "",
          "type": "uint256"
        }
      ],
      "stateMutability": "nonpayable",
      "type": "function"
    },
    {
      "inputs": [],
      "name": "eip712Domain",
      "outputs": [
        {
          "internalType": "bytes1",
          "name": "fields",
          "type": "bytes1"
        },
        {
          "internalType": "string",
          "name": "name",
          "type": "string"
        },
        {
          "internalType": "string",
          "name": "version",
          "type": "string"
        },
        {
          "internalType": "uint256",
          "name": "chainId",
          "type": "uint256"
        },
        {
          "internalType": "address",
          "name": "verifyingContract",
          "type": "address"
        },
        {
          "internalType": "bytes32",
          "name": "salt",
          "type": "bytes32"
        },
        {
          "internalType": "uint256[]",
          "name": "extensions",
          "type": "uint256[]"
        }
      ],
      "stateMutability": "view",
      "type": "function"
    },
    {
      "inputs": [
        {
          "internalType": "address[]",
          "name": "targets",
          "type": "address[]"
        },
        {
          "internalType": "uint256[]",
          "name": "values",
          "type": "uint256[]"
        },
        {
          "internalType": "bytes[]",
          "name": "calldatas",
          "type": "bytes[]"
        },
        {
          "internalType": "bytes32",
          "name": "descriptionHash",
          "type": "bytes32"
        }
      ],
      "name": "execute",
      "outputs": [
        {
          "internalType": "uint256",
          "name": "",
          "type": "uint256"
        }
      ],
      "stateMutability": "payable",
      "type": "function"
    },
    {
      "inputs": [],
      "name": "fundingContract",
      "outputs": [
        {
          "internalType": "contract FundingContract",
          "name": "",
          "type": "address"
        }
      ],
      "stateMutability": "view",
      "type": "function"
    },
    {
      "inputs": [
        {
          "internalType": "uint256",
          "name": "projectId",
          "type": "uint256"
        }
      ],
      "name": "getProjectProposal",
      "outputs": [
        {
          "internalType": "uint256",
          "name": "",
          "type": "uint256"
        }
      ],
      "stateMutability": "view",
      "type": "function"
    },
    {
      "inputs": [
        {
          "internalType": "address",
          "name": "account",
          "type": "address"
        },
        {
          "internalType": "uint256",
          "name": "timepoint",
          "type": "uint256"
        }
      ],
      "name": "getVotes",
      "outputs": [
        {
          "internalType": "uint256",
          "name": "",
          "type": "uint256"
        }
      ],
      "stateMutability": "view",
      "type": "function"
    },
    {
      "inputs": [
        {
          "internalType": "address",
          "name": "account",
          "type": "address"
        },
        {
          "internalType": "uint256",
          "name": "timepoint",
          "type": "uint256"
        },
        {
          "internalType": "bytes",
          "name": "params",
          "type": "bytes"
        }
      ],
      "name": "getVotesWithParams",
      "outputs": [
        {
          "internalType": "uint256",
          "name": "",
          "type": "uint256"
        }
      ],
      "stateMutability": "view",
      "type": "function"
    },
    {
      "inputs": [
        {
          "internalType": "uint256",
          "name": "proposalId",
          "type": "uint256"
        },
        {
          "internalType": "address",
          "name": "account",
          "type": "address"
        }
      ],
      "name": "hasVoted",
      "outputs": [
        {
          "internalType": "bool",
          "name": "",
          "type": "bool"
        }
      ],
      "stateMutability": "view",
      "type": "function"
    },
    {
      "inputs": [
        {
          "internalType": "address[]",
          "name": "targets",
          "type": "address[]"
        },
        {
          "internalType": "uint256[]",
          "name": "values",
          "type": "uint256[]"
        },
        {
          "internalType": "bytes[]",
          "name": "calldatas",
          "type": "bytes[]"
        },
        {
          "internalType": "bytes32",
          "name": "descriptionHash",
          "type": "bytes32"
        }
      ],
      "name": "hashProposal",
      "outputs": [
        {
          "internalType": "uint256",
          "name": "",
          "type": "uint256"
        }
      ],
      "stateMutability": "pure",
      "type": "function"
    },
    {
      "inputs": [],
      "name": "name",
      "outputs": [
        {
          "internalType": "string",
          "name": "",
          "type": "string"
        }
      ],
      "stateMutability": "view",
      "type": "function"
    },
    {
      "inputs": [
        {
          "internalType": "address",
          "name": "",
          "type": "address"
        },
        {
          "internalType": "address",
          "name": "",
          "type": "address"
        },
        {
          "internalType": "uint256[]",
          "name": "",
          "type": "uint256[]"
        },
        {
          "internalType": "uint256[]",
          "name": "",
          "type": "uint256[]"
        },
        {
          "internalType": "bytes",
          "name": "",
          "type": "bytes"
        }
      ],
      "name": "onERC1155BatchReceived",
      "outputs": [
        {
          "internalType": "bytes4",
          "name": "",
          "type": "bytes4"
        }
      ],
      "stateMutability": "nonpayable",
      "type": "function"
    },
    {
      "inputs": [
        {
          "internalType": "address",
          "name": "",
          "type": "address"
        },
        {
          "internalType": "address",
          "name": "",
          "type": "address"
        },
        {
          "internalType": "uint256",
          "name": "",
          "type": "uint256"
        },
        {
          "internalType": "uint256",
          "name": "",
          "type": "uint256"
        },
        {
          "internalType": "bytes",
          "name": "",
          "type": "bytes"
        }
      ],
      "name": "onERC1155Received",
      "outputs": [
        {
          "internalType": "bytes4",
          "name": "",
          "type": "bytes4"
        }
      ],
      "stateMutability": "nonpayable",
      "type": "function"
    },
    {
      "inputs": [
        {
          "internalType": "address",
          "name": "",
          "type": "address"
        },
        {
          "internalType": "address",
          "name": "",
          "type": "address"
        },
        {
          "internalType": "uint256",
          "name": "",
          "type": "uint256"
        },
        {
          "internalType": "bytes",
          "name": "",
          "type": "bytes"
        }
      ],
      "name": "onERC721Received",
      "outputs": [
        {
          "internalType": "bytes4",
          "name": "",
          "type": "bytes4"
        }
      ],
      "stateMutability": "nonpayable",
      "type": "function"
    },
    {
      "inputs": [
        {
          "internalType": "uint256",
          "name": "",
          "type": "uint256"
        }
      ],
      "name": "projectProposals",
      "outputs": [
        {
          "internalType": "uint256",
          "name": "",
          "type": "uint256"
        }
      ],
      "stateMutability": "view",
      "type": "function"
    },
    {
      "inputs": [
        {
          "internalType": "uint256",
          "name": "proposalId",
          "type": "uint256"
        }
      ],
      "name": "proposalDeadline",
      "outputs": [
        {
          "internalType": "uint256",
          "name": "",
          "type": "uint256"
        }
      ],
      "stateMutability": "view",
      "type": "function"
    },
    {
      "inputs": [
        {
          "internalType": "uint256",
          "name": "",
          "type": "uint256"
        }
      ],
      "name": "proposalDetails",
      "outputs": [
        {
          "internalType": "enum ProjectDAO.ProposalCategory",
          "name": "category",
          "type": "uint8"
        },
        {
          "internalType": "uint256",
          "name": "requiredQuorum",
          "type": "uint256"
        },
        {
          "internalType": "uint256",
          "name": "proposalDelay",
          "type": "uint256"
        },
        {
          "internalType": "uint256",
          "name": "proposalPeriod",
          "type": "uint256"
        }
      ],
      "stateMutability": "view",
      "type": "function"
    },
    {
      "inputs": [
        {
          "internalType": "uint256",
          "name": "proposalId",
          "type": "uint256"
        }
      ],
      "name": "proposalProposer",
      "outputs": [
        {
          "internalType": "address",
          "name": "",
          "type": "address"
        }
      ],
      "stateMutability": "view",
      "type": "function"
    },
    {
      "inputs": [
        {
          "internalType": "uint256",
          "name": "proposalId",
          "type": "uint256"
        }
      ],
      "name": "proposalSnapshot",
      "outputs": [
        {
          "internalType": "uint256",
          "name": "",
          "type": "uint256"
        }
      ],
      "stateMutability": "view",
      "type": "function"
    },
    {
      "inputs": [],
      "name": "proposalThreshold",
      "outputs": [
        {
          "internalType": "uint256",
          "name": "",
          "type": "uint256"
        }
      ],
      "stateMutability": "view",
      "type": "function"
    },
    {
      "inputs": [
        {
          "internalType": "uint256",
          "name": "proposalId",
          "type": "uint256"
        }
      ],
      "name": "proposalVotes",
      "outputs": [
        {
          "internalType": "uint256",
          "name": "againstVotes",
          "type": "uint256"
        },
        {
          "internalType": "uint256",
          "name": "forVotes",
          "type": "uint256"
        },
        {
          "internalType": "uint256",
          "name": "abstainVotes",
          "type": "uint256"
        }
      ],
      "stateMutability": "view",
      "type": "function"
    },
    {
      "inputs": [
        {
          "internalType": "address[]",
          "name": "targets",
          "type": "address[]"
        },
        {
          "internalType": "uint256[]",
          "name": "values",
          "type": "uint256[]"
        },
        {
          "internalType": "bytes[]",
          "name": "calldatas",
          "type": "bytes[]"
        },
        {
          "internalType": "string",
          "name": "description",
          "type": "string"
        }
      ],
      "name": "propose",
      "outputs": [
        {
          "internalType": "uint256",
          "name": "",
          "type": "uint256"
        }
      ],
      "stateMutability": "nonpayable",
      "type": "function"
    },
    {
      "inputs": [
        {
          "internalType": "uint256",
          "name": "blockNumber",
          "type": "uint256"
        }
      ],
      "name": "quorum",
      "outputs": [
        {
          "internalType": "uint256",
          "name": "",
          "type": "uint256"
        }
      ],
      "stateMutability": "view",
      "type": "function"
    },
    {
      "inputs": [],
      "name": "quorumDenominator",
      "outputs": [
        {
          "internalType": "uint256",
          "name": "",
          "type": "uint256"
        }
      ],
      "stateMutability": "view",
      "type": "function"
    },
    {
      "inputs": [
        {
          "internalType": "uint256",
          "name": "timepoint",
          "type": "uint256"
        }
      ],
      "name": "quorumNumerator",
      "outputs": [
        {
          "internalType": "uint256",
          "name": "",
          "type": "uint256"
        }
      ],
      "stateMutability": "view",
      "type": "function"
    },
    {
      "inputs": [],
      "name": "quorumNumerator",
      "outputs": [
        {
          "internalType": "uint256",
          "name": "",
          "type": "uint256"
        }
      ],
      "stateMutability": "view",
      "type": "function"
    },
    {
      "inputs": [
        {
          "internalType": "address",
          "name": "target",
          "type": "address"
        },
        {
          "internalType": "uint256",
          "name": "value",
          "type": "uint256"
        },
        {
          "internalType": "bytes",
          "name": "data",
          "type": "bytes"
        }
      ],
      "name": "relay",
      "outputs": [],
      "stateMutability": "payable",
      "type": "function"
    },
    {
      "inputs": [],
      "name": "rewardToken",
      "outputs": [
        {
          "internalType": "contract RewardToken",
          "name": "",
          "type": "address"
        }
      ],
      "stateMutability": "view",
      "type": "function"
    },
    {
      "inputs": [
        {
          "internalType": "uint256",
          "name": "newProposalThreshold",
          "type": "uint256"
        }
      ],
      "name": "setProposalThreshold",
      "outputs": [],
      "stateMutability": "nonpayable",
      "type": "function"
    },
    {
      "inputs": [
        {
          "internalType": "uint256",
          "name": "newVotingDelay",
          "type": "uint256"
        }
      ],
      "name": "setVotingDelay",
      "outputs": [],
      "stateMutability": "nonpayable",
      "type": "function"
    },
    {
      "inputs": [
        {
          "internalType": "uint256",
          "name": "newVotingPeriod",
          "type": "uint256"
        }
      ],
      "name": "setVotingPeriod",
      "outputs": [],
      "stateMutability": "nonpayable",
      "type": "function"
    },
    {
      "inputs": [
        {
          "internalType": "uint256",
          "name": "proposalId",
          "type": "uint256"
        }
      ],
      "name": "state",
      "outputs": [
        {
          "internalType": "enum IGovernor.ProposalState",
          "name": "",
          "type": "uint8"
        }
      ],
      "stateMutability": "view",
      "type": "function"
    },
    {
      "inputs": [
        {
          "internalType": "bytes4",
          "name": "interfaceId",
          "type": "bytes4"
        }
      ],
      "name": "supportsInterface",
      "outputs": [
        {
          "internalType": "bool",
          "name": "",
          "type": "bool"
        }
      ],
      "stateMutability": "view",
      "type": "function"
    },
    {
      "inputs": [],
      "name": "token",
      "outputs": [
        {
          "internalType": "contract IERC5805",
          "name": "",
          "type": "address"
        }
      ],
      "stateMutability": "view",
      "type": "function"
    },
    {
      "inputs": [
        {
          "internalType": "uint256",
          "name": "newQuorumNumerator",
          "type": "uint256"
        }
      ],
      "name": "updateQuorumNumerator",
      "outputs": [],
      "stateMutability": "nonpayable",
      "type": "function"
    },
    {
      "inputs": [],
      "name": "version",
      "outputs": [
        {
          "internalType": "string",
          "name": "",
          "type": "string"
        }
      ],
      "stateMutability": "view",
      "type": "function"
    },
    {
      "inputs": [],
      "name": "votingDelay",
      "outputs": [
        {
          "internalType": "uint256",
          "name": "",
          "type": "uint256"
        }
      ],
      "stateMutability": "view",
      "type": "function"
    },
    {
      "inputs": [],
      "name": "votingPeriod",
      "outputs": [
        {
          "internalType": "uint256",
          "name": "",
          "type": "uint256"
        }
      ],
      "stateMutability": "view",
      "type": "function"
    },
    {
      "stateMutability": "payable",
      "type": "receive"
    }
  ],
  "bytecode": "0x6101806040523480156200001257600080fd5b5060405162004f5a38038062004f5a833981016040819052620000359162000901565b600481600161c4e060006040518060400160405280600c81526020016b496e6e6f46756e642044414f60a01b8152508062000075620001aa60201b60201c565b62000082826000620001c5565b6101205262000093816001620001c5565b61014052815160208084019190912060e052815190820120610100524660a0526200012160e05161010051604080517f8b73c3c69bb8fe3d512ecc4cf759cc79239f7b179b0ffacaa9a75d522b39400f60208201529081019290925260608201524660808201523060a082015260009060c00160405160208183030381529060405280519060200120905090565b60805250503060c0526002620001388282620009de565b5062000146905083620001fe565b62000151826200023f565b6200015c81620002e6565b5050506001600160a01b031661016052620001778162000327565b50600c80546001600160a01b039384166001600160a01b031991821617909155600d805492909316911617905562000b6b565b6040805180820190915260018152603160f81b602082015290565b6000602083511015620001e557620001dd83620004a6565b9050620001f8565b81620001f28482620009de565b5060ff90505b92915050565b60065460408051918252602082018390527fc565b045403dc03c2eea82b81a0465edad9e2e7fc4d97e11421c209da93d7a93910160405180910390a1600655565b60008111620002a55760405162461bcd60e51b815260206004820152602760248201527f476f7665726e6f7253657474696e67733a20766f74696e6720706572696f6420604482015266746f6f206c6f7760c81b60648201526084015b60405180910390fd5b60075460408051918252602082018390527f7e3f7f0708a84de9203036abaa450dccc85ad5ff52f78c170f3edb55cf5e8828910160405180910390a1600755565b60085460408051918252602082018390527fccb45da8d5717e6c4544694297c4ba5cf151d455c9bb0ed4fc7a38411bc05461910160405180910390a1600855565b6064811115620003ac5760405162461bcd60e51b815260206004820152604360248201527f476f7665726e6f72566f74657351756f72756d4672616374696f6e3a2071756f60448201527f72756d4e756d657261746f72206f7665722071756f72756d44656e6f6d696e616064820152623a37b960e91b608482015260a4016200029c565b6000620003b8620004e9565b90508015801590620003ca5750600b54155b1562000432576040805180820190915260008152600b9060208101620003f08462000518565b6001600160e01b0390811690915282546001810184556000938452602093849020835194909301519091166401000000000263ffffffff909316929092179101555b62000467620004526200044462000587565b65ffffffffffff16620005fe565b6200045d8462000518565b600b919062000665565b505060408051828152602081018490527f0553476bf02ef2726e8ce5ced78d63e26e602e4a2257b1f559418e24b4633997910160405180910390a15050565b600080829050601f81511115620004d4578260405163305a27a960e01b81526004016200029c919062000aaa565b8051620004e18262000afa565b179392505050565b600b54600090156200050f5762000501600b62000682565b6001600160e01b0316905090565b600a545b905090565b60006001600160e01b03821115620005835760405162461bcd60e51b815260206004820152602760248201527f53616665436173743a2076616c756520646f65736e27742066697420696e20326044820152663234206269747360c81b60648201526084016200029c565b5090565b6000610160516001600160a01b03166391ddadf46040518163ffffffff1660e01b8152600401602060405180830381865afa925050508015620005e9575060408051601f3d908101601f19168201909252620005e69181019062000b1f565b60015b620005f9576200051343620006d0565b919050565b600063ffffffff821115620005835760405162461bcd60e51b815260206004820152602660248201527f53616665436173743a2076616c756520646f65736e27742066697420696e203360448201526532206269747360d01b60648201526084016200029c565b6000806200067585858562000739565b915091505b935093915050565b80546000908015620006c657620006ae83620006a060018462000b49565b600091825260209091200190565b5464010000000090046001600160e01b0316620006c9565b60005b9392505050565b600065ffffffffffff821115620005835760405162461bcd60e51b815260206004820152602660248201527f53616665436173743a2076616c756520646f65736e27742066697420696e203460448201526538206269747360d01b60648201526084016200029c565b8254600090819080156200088e5760006200075b87620006a060018562000b49565b60408051808201909152905463ffffffff8082168084526401000000009092046001600160e01b031660208401529192509087161015620007df5760405162461bcd60e51b815260206004820152601b60248201527f436865636b706f696e743a2064656372656173696e67206b657973000000000060448201526064016200029c565b805163ffffffff8088169116036200082d57846200080488620006a060018662000b49565b80546001600160e01b03929092166401000000000263ffffffff9092169190911790556200087d565b6040805180820190915263ffffffff80881682526001600160e01b0380881660208085019182528b54600181018d5560008d81529190912094519151909216640100000000029216919091179101555b6020015192508391506200067a9050565b50506040805180820190915263ffffffff80851682526001600160e01b0380851660208085019182528854600181018a5560008a8152918220955192519093166401000000000291909316179201919091559050816200067a565b80516001600160a01b0381168114620005f957600080fd5b600080604083850312156200091557600080fd5b6200092083620008e9565b91506200093060208401620008e9565b90509250929050565b634e487b7160e01b600052604160045260246000fd5b600181811c908216806200096457607f821691505b6020821081036200098557634e487b7160e01b600052602260045260246000fd5b50919050565b601f821115620009d957600081815260208120601f850160051c81016020861015620009b45750805b601f850160051c820191505b81811015620009d557828155600101620009c0565b5050505b505050565b81516001600160401b03811115620009fa57620009fa62000939565b62000a128162000a0b84546200094f565b846200098b565b602080601f83116001811462000a4a576000841562000a315750858301515b600019600386901b1c1916600185901b178555620009d5565b600085815260208120601f198616915b8281101562000a7b5788860151825594840194600190910190840162000a5a565b508582101562000a9a5787850151600019600388901b60f8161c191681555b5050505050600190811b01905550565b600060208083528351808285015260005b8181101562000ad95785810183015185820160400152820162000abb565b506000604082860101526040601f19601f8301168501019250505092915050565b80516020808301519190811015620009855760001960209190910360031b1b16919050565b60006020828403121562000b3257600080fd5b815165ffffffffffff81168114620006c957600080fd5b81810381811115620001f857634e487b7160e01b600052601160045260246000fd5b60805160a05160c05160e0516101005161012051610140516101605161436d62000bed60003960008181610a3001528181610f0c01528181611218015281816124f20152613053015260006111c40152600061119a015260006126530152600061262b01526000612586015260006125b0015260006125da015261436d6000f3fe6080604052600436106102975760003560e01c80637b3c71d31161015a578063c59057e4116100c1578063eb9019d41161007a578063eb9019d414610972578063ece40cc114610992578063f23a6e61146109b2578063f7c618c1146109de578063f8ce560a146109fe578063fc0c546a14610a1e57600080fd5b8063c59057e41461086b578063c5a86c2d1461088b578063dbc1d569146108ab578063dd4e2ba5146108d8578063deaaa7cc1461091e578063ea0217cf1461095257600080fd5b80639a802a6d116101135780639a802a6d146107a9578063a7713a70146107c9578063b58131b0146107de578063bc197c81146107f3578063c01f9e371461081f578063c28bc2fa1461085857600080fd5b80637b3c71d3146106e15780637d5e81e21461070157806384b0196e1461072157806391ddadf41461074957806397c3d33414610775578063995df76c1461078957600080fd5b80633bccf4fd116101fe57806354fd4d50116101b757806354fd4d501461060a578063567813881461063457806356a474e4146106545780635f398a141461068157806360c4247f146106a157806370b0f660146106c157600080fd5b80633bccf4fd146104e95780633e4f49e6146105095780634385963214610536578063452115d6146105805780634bf5d7e9146105a0578063544ffc9c146105b557600080fd5b8063150b7a0211610250578063150b7a02146103bd57806316e9eaec146104015780632656227d146104575780632d63f6931461046a5780632fe3e261146104a05780633932abb1146104d457600080fd5b806301ffc9a7146102ae57806302a251a3146102e3578063034201811461030657806306f3f9e61461032657806306fdde0314610346578063143489d01461036857600080fd5b366102a957005b60405180910390fd5b005b600080fd5b3480156102ba57600080fd5b506102ce6102c9366004613461565b610a52565b60405190151581526020015b60405180910390f35b3480156102ef57600080fd5b506102f8610a63565b6040519081526020016102da565b34801561031257600080fd5b506102f86103213660046135a7565b610a73565b34801561033257600080fd5b506102a761034136600461364d565b610b6b565b34801561035257600080fd5b5061035b610bad565b6040516102da91906136b6565b34801561037457600080fd5b506103a561038336600461364d565b600090815260036020526040902054600160401b90046001600160a01b031690565b6040516001600160a01b0390911681526020016102da565b3480156103c957600080fd5b506103e86103d83660046136e0565b630a85bd0160e11b949350505050565b6040516001600160e01b031990911681526020016102da565b34801561040d57600080fd5b5061044761041c36600461364d565b600f60205260009081526040902080546001820154600283015460039093015460ff90921692909184565b6040516102da949392919061375d565b6102f86104653660046138f7565b610c3f565b34801561047657600080fd5b506102f861048536600461364d565b6000908152600360205260409020546001600160401b031690565b3480156104ac57600080fd5b506102f87fb3b3f3b703cd84ce352197dcff232b1b5d3cfb2025ce47cf04742d0651f1af8881565b3480156104e057600080fd5b506102f8610d6b565b3480156104f557600080fd5b506102f8610504366004613986565b610d76565b34801561051557600080fd5b5061052961052436600461364d565b610dec565b6040516102da91906139d4565b34801561054257600080fd5b506102ce6105513660046139ee565b60008281526009602090815260408083206001600160a01b038516845260030190915290205460ff1692915050565b34801561058c57600080fd5b506102f861059b3660046138f7565b610df7565b3480156105ac57600080fd5b5061035b610f08565b3480156105c157600080fd5b506105ef6105d036600461364d565b6000908152600960205260409020805460018201546002909201549092565b604080519384526020840192909252908201526060016102da565b34801561061657600080fd5b506040805180820190915260018152603160f81b602082015261035b565b34801561064057600080fd5b506102f861064f366004613a1a565b610fca565b34801561066057600080fd5b506102f861066f36600461364d565b6000908152600e602052604090205490565b34801561068d57600080fd5b506102f861069c366004613a3d565b610ff3565b3480156106ad57600080fd5b506102f86106bc36600461364d565b61103d565b3480156106cd57600080fd5b506102a76106dc36600461364d565b6110ee565b3480156106ed57600080fd5b506102f86106fc366004613ac0565b61112d565b34801561070d57600080fd5b506102f861071c366004613b19565b611175565b34801561072d57600080fd5b5061073661118c565b6040516102da9796959493929190613bf4565b34801561075557600080fd5b5061075e611214565b60405165ffffffffffff90911681526020016102da565b34801561078157600080fd5b5060646102f8565b34801561079557600080fd5b50600c546103a5906001600160a01b031681565b3480156107b557600080fd5b506102f86107c4366004613c56565b61129d565b3480156107d557600080fd5b506102f86112b4565b3480156107ea57600080fd5b506102f86112de565b3480156107ff57600080fd5b506103e861080e366004613cac565b63bc197c8160e01b95945050505050565b34801561082b57600080fd5b506102f861083a36600461364d565b6000908152600360205260409020600101546001600160401b031690565b6102a7610866366004613d3b565b6112e9565b34801561087757600080fd5b506102f86108863660046138f7565b6113b0565b34801561089757600080fd5b506102f86108a6366004613d7c565b6113ea565b3480156108b757600080fd5b506102f86108c636600461364d565b600e6020526000908152604090205481565b3480156108e457600080fd5b506040805180820190915260208082527f737570706f72743d627261766f2671756f72756d3d666f722c6162737461696e9082015261035b565b34801561092a57600080fd5b506102f87f150214d74d59b7d1e90c73fc22ef3d991dd0a76b046543d4d80ab92d2a50328f81565b34801561095e57600080fd5b506102a761096d36600461364d565b61165c565b34801561097e57600080fd5b506102f861098d366004613dda565b61169b565b34801561099e57600080fd5b506102a76109ad36600461364d565b6116bc565b3480156109be57600080fd5b506103e86109cd366004613e04565b63f23a6e6160e01b95945050505050565b3480156109ea57600080fd5b50600d546103a5906001600160a01b031681565b348015610a0a57600080fd5b506102f8610a1936600461364d565b6116fb565b348015610a2a57600080fd5b506103a57f000000000000000000000000000000000000000000000000000000000000000081565b6000610a5d82611706565b92915050565b6000610a6e60075490565b905090565b600080610b17610b0f7fb3b3f3b703cd84ce352197dcff232b1b5d3cfb2025ce47cf04742d0651f1af888c8c8c8c604051610aaf929190613e68565b60405180910390208b80519060200120604051602001610af4959493929190948552602085019390935260ff9190911660408401526060830152608082015260a00190565b604051602081830303815290604052805190602001206117a2565b8686866117cf565b9050610b5d8a828b8b8b8080601f0160208091040260200160405190810160405280939291908181526020018383808284376000920191909152508d92506117ed915050565b9a9950505050505050505050565b333014610b8a5760405162461bcd60e51b815260040161029e90613e78565b610ba1565b80610b9a6004611942565b03610b8f57505b610baa816119c1565b50565b606060028054610bbc90613eaf565b80601f0160208091040260200160405190810160405280929190818152602001828054610be890613eaf565b8015610c355780601f10610c0a57610100808354040283529160200191610c35565b820191906000526020600020905b815481529060010190602001808311610c1857829003601f168201915b5050505050905090565b600080610c4e868686866113b0565b90506000610c5b82610dec565b90506004816007811115610c7157610c71613747565b1480610c8e57506005816007811115610c8c57610c8c613747565b145b610ce45760405162461bcd60e51b815260206004820152602160248201527f476f7665726e6f723a2070726f706f73616c206e6f74207375636365737366756044820152601b60fa1b606482015260840161029e565b60008281526003602052604090819020600201805460ff19166001179055517f712ae1383f79ac853f8d882153778e0260ef8f03b504e2866e0593e04d2b291f90610d329084815260200190565b60405180910390a1610d478288888888611b2f565b610d548288888888611bbc565b610d618288888888611b2f565b5095945050505050565b6000610a6e60065490565b604080517f150214d74d59b7d1e90c73fc22ef3d991dd0a76b046543d4d80ab92d2a50328f602082015290810186905260ff851660608201526000908190610dc490610b0f90608001610af4565b9050610de187828860405180602001604052806000815250611bc9565b979650505050505050565b6000610a5d82611bec565b600080610e06868686866113b0565b90506000610e1382610dec565b6007811115610e2457610e24613747565b14610e715760405162461bcd60e51b815260206004820152601c60248201527f476f7665726e6f723a20746f6f206c61746520746f2063616e63656c00000000604482015260640161029e565b600081815260036020526040902054600160401b90046001600160a01b0316336001600160a01b031614610ef25760405162461bcd60e51b815260206004820152602260248201527f476f7665726e6f723a206f6e6c792070726f706f7365722063616e2063616e63604482015261195b60f21b606482015260840161029e565b610efe86868686611d2c565b9695505050505050565b60607f00000000000000000000000000000000000000000000000000000000000000006001600160a01b0316634bf5d7e96040518163ffffffff1660e01b8152600401600060405180830381865afa925050508015610f8957506040513d6000823e601f3d908101601f19168201604052610f869190810190613ee3565b60015b610fc5575060408051808201909152601d81527f6d6f64653d626c6f636b6e756d6265722666726f6d3d64656661756c74000000602082015290565b919050565b600080339050610feb84828560405180602001604052806000815250611bc9565b949350505050565b600080339050610de187828888888080601f0160208091040260200160405190810160405280939291908181526020018383808284376000920191909152508a92506117ed915050565b600b54600090808203611054575050600a54919050565b6000600b611063600184613f66565b8154811061107357611073613f79565b60009182526020918290206040805180820190915291015463ffffffff8116808352600160201b9091046001600160e01b031692820192909252915084106110c957602001516001600160e01b03169392505050565b6110dd6110d585611d3a565b600b90611da3565b6001600160e01b0316949350505050565b33301461110d5760405162461bcd60e51b815260040161029e90613e78565b611124565b8061111d6004611942565b0361111257505b610baa81611e56565b600080339050610efe86828787878080601f016020809104026020016040519081016040528093929190818152602001838380828437600092019190915250611bc992505050565b600061118385858585611e97565b95945050505050565b6000606080828080836111bf7f000000000000000000000000000000000000000000000000000000000000000083612270565b6111ea7f00000000000000000000000000000000000000000000000000000000000000006001612270565b60408051600080825260208201909252600f60f81b9b939a50919850469750309650945092509050565b60007f00000000000000000000000000000000000000000000000000000000000000006001600160a01b03166391ddadf46040518163ffffffff1660e01b8152600401602060405180830381865afa925050508015611290575060408051601f3d908101601f1916820190925261128d91810190613f8f565b60015b610fc557610a6e4361231b565b60006112aa848484612382565b90505b9392505050565b600b54600090156112d7576112c9600b61239b565b6001600160e01b0316905090565b50600a5490565b6000610a6e60085490565b3330146113085760405162461bcd60e51b815260040161029e90613e78565b61131f565b806113186004611942565b0361130d57505b600080856001600160a01b031685858560405161133d929190613e68565b60006040518083038185875af1925050503d806000811461137a576040519150601f19603f3d011682016040523d82523d6000602084013e61137f565b606091505b50915091506113a782826040518060600160405280602881526020016142e9602891396123d4565b50505050505050565b6000848484846040516020016113c99493929190614045565b60408051601f19818403018152919052805160209091012095945050505050565b60006113f46112de565b600d546040516370a0823160e01b81523360048201526001600160a01b03909116906370a0823190602401602060405180830381865afa15801561143c573d6000803e3d6000fd5b505050506040513d601f19601f820116820180604052508101906114609190614090565b10156114bd5760405162461bcd60e51b815260206004820152602660248201527f496e73756666696369656e7420746f6b656e7320746f206372656174652070726044820152651bdc1bdcd85b60d21b606482015260840161029e565b60408051600080825260208201818152828401828152606084019094529192816114f7565b60608152602001906001900390816114e25790505b50905060006115088484848a611e97565b905060008080600389600381111561152257611522613747565b036115385750600a915060019050611c20611571565b600189600381111561154c5761154c613747565b036115635750601e9150611c20905061c4e0611571565b5060149150610e1090506162705b60405180608001604052808a600381111561158e5761158e613747565b81526020808201869052604080830186905260609092018490526000878152600f9091522081518154829060ff191660018360038111156115d1576115d1613747565b02179055506020828101516001830155604080840151600284015560609093015160039092019190915560008d8152600e90915220849055838b7f32f465637a3313332a819b6a90c6d05441bf3d20dd068f20a2fabc5baac897c18c61163785426140a9565b6040516116459291906140bc565b60405180910390a350919998505050505050505050565b33301461167b5760405162461bcd60e51b815260040161029e90613e78565b611692565b8061168b6004611942565b0361168057505b610baa816123ed565b60006112ad83836116b760408051602081019091526000815290565b612382565b3330146116db5760405162461bcd60e51b815260040161029e90613e78565b6116f2565b806116eb6004611942565b036116e057505b610baa8161248e565b6000610a5d826124cf565b600063288ace0360e11b6318df743f60e31b63bf26d89760e01b6379dd796f60e01b6001600160e01b0319861682148061174c57506001600160e01b0319868116908216145b8061176357506001600160e01b0319868116908516145b8061177e57506001600160e01b03198616630271189760e51b145b80610efe57506301ffc9a760e01b6001600160e01b03198716149695505050505050565b6000610a5d6117af612579565b8360405161190160f01b8152600281019290925260228201526042902090565b60008060006117e0878787876126a4565b91509150610d6181612768565b6000858152600360205260408120600161180688610dec565b600781111561181757611817613747565b146118705760405162461bcd60e51b815260206004820152602360248201527f476f7665726e6f723a20766f7465206e6f742063757272656e746c792061637460448201526269766560e81b606482015260840161029e565b805460009061188a9088906001600160401b031686612382565b905061189988888884886128b2565b83516000036118ee57866001600160a01b03167fb8e138887d0aa13bab447e82de9d5c1777041ecd21ca36ba824ff1e6c07ddda4898884896040516118e194939291906140de565b60405180910390a2610de1565b866001600160a01b03167fe2babfbac5889a709b63bb7f598b324e08bc5a4fb9ec647fb3cbc9ec07eb8712898884898960405161192f959493929190614106565b60405180910390a2979650505050505050565b600061195d8254600f81810b600160801b909204900b131590565b1561197b57604051631ed9509560e11b815260040160405180910390fd5b508054600f0b6000818152600180840160205260408220805492905583546fffffffffffffffffffffffffffffffff191692016001600160801b03169190911790915590565b6064811115611a445760405162461bcd60e51b815260206004820152604360248201527f476f7665726e6f72566f74657351756f72756d4672616374696f6e3a2071756f60448201527f72756d4e756d657261746f72206f7665722071756f72756d44656e6f6d696e616064820152623a37b960e91b608482015260a40161029e565b6000611a4e6112b4565b90508015801590611a5f5750600b54155b15611ac3576040805180820190915260008152600b9060208101611a8284612a2c565b6001600160e01b039081169091528254600181018455600093845260209384902083519490930151909116600160201b0263ffffffff909316929092179101555b611af0611ade611ad1611214565b65ffffffffffff16611d3a565b611ae784612a2c565b600b9190612a95565b505060408051828152602081018490527f0553476bf02ef2726e8ce5ced78d63e26e602e4a2257b1f559418e24b4633997910160405180910390a15050565b611bb5565b8451811015611bb357306001600160a01b0316858281518110611b5957611b59613f79565b60200260200101516001600160a01b031603611ba357611ba3838281518110611b8457611b84613f79565b6020026020010151805190602001206004612ab090919063ffffffff16565b611bac8161414c565b9050611b34565b505b5050505050565b611bb58585858585612aec565b600061118385858585611be760408051602081019091526000815290565b6117ed565b6000818152600360205260408120600281015460ff1615611c105750600792915050565b6002810154610100900460ff1615611c2b5750600292915050565b6000838152600360205260408120546001600160401b031690819003611c935760405162461bcd60e51b815260206004820152601d60248201527f476f7665726e6f723a20756e6b6e6f776e2070726f706f73616c206964000000604482015260640161029e565b6000611c9d611214565b65ffffffffffff169050808210611cb957506000949350505050565b6000858152600360205260409020600101546001600160401b0316818110611ce75750600195945050505050565b611cf086612be2565b8015611d0f575060008681526009602052604090208054600190910154115b15611d205750600495945050505050565b50600395945050505050565b600061118385858585612c2e565b600063ffffffff821115611d9f5760405162461bcd60e51b815260206004820152602660248201527f53616665436173743a2076616c756520646f65736e27742066697420696e203360448201526532206269747360d01b606482015260840161029e565b5090565b815460009081816005811115611e00576000611dbe84612d4c565b611dc89085613f66565b60008881526020902090915081015463ffffffff9081169087161015611df057809150611dfe565b611dfb8160016140a9565b92505b505b6000611e0e87878585612e34565b90508015611e4957611e3387611e25600184613f66565b600091825260209091200190565b54600160201b90046001600160e01b0316610de1565b6000979650505050505050565b60065460408051918252602082018390527fc565b045403dc03c2eea82b81a0465edad9e2e7fc4d97e11421c209da93d7a93910160405180910390a1600655565b600033611ea48184612e92565b611ef05760405162461bcd60e51b815260206004820152601d60248201527f476f7665726e6f723a2070726f706f7365722072657374726963746564000000604482015260640161029e565b6000611efa611214565b65ffffffffffff169050611f0c6112de565b611f1b8361098d600185613f66565b1015611f835760405162461bcd60e51b815260206004820152603160248201527f476f7665726e6f723a2070726f706f73657220766f7465732062656c6f7720706044820152701c9bdc1bdcd85b081d1a1c995cda1bdb19607a1b606482015260840161029e565b6000611f9888888888805190602001206113b0565b90508651885114611fbb5760405162461bcd60e51b815260040161029e90614165565b8551885114611fdc5760405162461bcd60e51b815260040161029e90614165565b600088511161202d5760405162461bcd60e51b815260206004820152601860248201527f476f7665726e6f723a20656d7074792070726f706f73616c0000000000000000604482015260640161029e565b6000818152600360205260409020546001600160401b03161561209c5760405162461bcd60e51b815260206004820152602160248201527f476f7665726e6f723a2070726f706f73616c20616c72656164792065786973746044820152607360f81b606482015260840161029e565b60006120a6610d6b565b6120b090846140a9565b905060006120bc610a63565b6120c690836140a9565b90506040518060e001604052806120dc84612f83565b6001600160401b031681526001600160a01b03871660208201526000604082015260600161210983612f83565b6001600160401b039081168252600060208084018290526040808501839052606094850183905288835260038252918290208551815492870151878501519186166001600160e01b031990941693909317600160401b6001600160a01b039094168402176001600160e01b0316600160e01b60e09290921c91909102178155938501516080860151908416921c0217600183015560a08301516002909201805460c09094015161ffff1990941692151561ff00191692909217610100931515939093029290921790558a517f7d84a6263ae0d98d3329bd7b46bb4e8d6f98cd35a7adb45c274c8b7fd5ebd5e091859188918e918e9181111561220d5761220d6134e4565b60405190808252806020026020018201604052801561224057816020015b606081526020019060019003908161222b5790505b508d88888f60405161225a999897969594939291906141a6565b60405180910390a1509098975050505050505050565b606060ff831461228a5761228383612feb565b9050610a5d565b81805461229690613eaf565b80601f01602080910402602001604051908101604052809291908181526020018280546122c290613eaf565b801561230f5780601f106122e45761010080835404028352916020019161230f565b820191906000526020600020905b8154815290600101906020018083116122f257829003601f168201915b50505050509050610a5d565b600065ffffffffffff821115611d9f5760405162461bcd60e51b815260206004820152602660248201527f53616665436173743a2076616c756520646f65736e27742066697420696e203460448201526538206269747360d01b606482015260840161029e565b60008061239085858561302a565b9050611183816130c0565b805460009080156123cb576123b583611e25600184613f66565b54600160201b90046001600160e01b03166112ad565b60009392505050565b606083156123e35750816112ad565b6112ad8383613119565b6000811161244d5760405162461bcd60e51b815260206004820152602760248201527f476f7665726e6f7253657474696e67733a20766f74696e6720706572696f6420604482015266746f6f206c6f7760c81b606482015260840161029e565b60075460408051918252602082018390527f7e3f7f0708a84de9203036abaa450dccc85ad5ff52f78c170f3edb55cf5e8828910160405180910390a1600755565b60085460408051918252602082018390527fccb45da8d5717e6c4544694297c4ba5cf151d455c9bb0ed4fc7a38411bc05461910160405180910390a1600855565b600060646124dc8361103d565b604051632394e7a360e21b8152600481018590527f00000000000000000000000000000000000000000000000000000000000000006001600160a01b031690638e539e8c90602401602060405180830381865afa158015612541573d6000803e3d6000fd5b505050506040513d601f19601f820116820180604052508101906125659190614090565b61256f919061427d565b610a5d91906142aa565b6000306001600160a01b037f0000000000000000000000000000000000000000000000000000000000000000161480156125d257507f000000000000000000000000000000000000000000000000000000000000000046145b156125fc57507f000000000000000000000000000000000000000000000000000000000000000090565b610a6e604080517f8b73c3c69bb8fe3d512ecc4cf759cc79239f7b179b0ffacaa9a75d522b39400f60208201527f0000000000000000000000000000000000000000000000000000000000000000918101919091527f000000000000000000000000000000000000000000000000000000000000000060608201524660808201523060a082015260009060c00160405160208183030381529060405280519060200120905090565b6000807f7fffffffffffffffffffffffffffffff5d576e7357a4501ddfe92f46681b20a08311156126db575060009050600361275f565b6040805160008082526020820180845289905260ff881692820192909252606081018690526080810185905260019060a0016020604051602081039080840390855afa15801561272f573d6000803e3d6000fd5b5050604051601f1901519150506001600160a01b0381166127585760006001925092505061275f565b9150600090505b94509492505050565b600081600481111561277c5761277c613747565b036127845750565b600181600481111561279857612798613747565b036127e55760405162461bcd60e51b815260206004820152601860248201527f45434453413a20696e76616c6964207369676e61747572650000000000000000604482015260640161029e565b60028160048111156127f9576127f9613747565b036128465760405162461bcd60e51b815260206004820152601f60248201527f45434453413a20696e76616c6964207369676e6174757265206c656e67746800604482015260640161029e565b600381600481111561285a5761285a613747565b03610baa5760405162461bcd60e51b815260206004820152602260248201527f45434453413a20696e76616c6964207369676e6174757265202773272076616c604482015261756560f01b606482015260840161029e565b60008581526009602090815260408083206001600160a01b0388168452600381019092529091205460ff161561293a5760405162461bcd60e51b815260206004820152602760248201527f476f7665726e6f72566f74696e6753696d706c653a20766f746520616c726561604482015266191e4818d85cdd60ca1b606482015260840161029e565b6001600160a01b03851660009081526003820160205260409020805460ff1916600117905560ff8416612986578281600001600082825461297b91906140a9565b90915550611bb39050565b60001960ff8516016129a6578281600101600082825461297b91906140a9565b60011960ff8516016129c6578281600201600082825461297b91906140a9565b60405162461bcd60e51b815260206004820152603560248201527f476f7665726e6f72566f74696e6753696d706c653a20696e76616c69642076616044820152746c756520666f7220656e756d20566f74655479706560581b606482015260840161029e565b60006001600160e01b03821115611d9f5760405162461bcd60e51b815260206004820152602760248201527f53616665436173743a2076616c756520646f65736e27742066697420696e20326044820152663234206269747360c81b606482015260840161029e565b600080612aa3858585613143565b915091505b935093915050565b8154600160801b90819004600f0b6000818152600180860160205260409091209390935583546001600160801b03908116939091011602179055565b600060405180606001604052806027815260200161431160279139905060005b85518110156113a757600080878381518110612b2a57612b2a613f79565b60200260200101516001600160a01b0316878481518110612b4d57612b4d613f79565b6020026020010151878581518110612b6757612b67613f79565b6020026020010151604051612b7c91906142cc565b60006040518083038185875af1925050503d8060008114612bb9576040519150601f19603f3d011682016040523d82523d6000602084013e612bbe565b606091505b5091509150612bce8282866123d4565b50505080612bdb9061414c565b9050612b0c565b600081815260096020526040812060028101546001820154612c0491906140a9565b600084815260036020526040902054612c25906001600160401b03166116fb565b11159392505050565b600080612c3d868686866113b0565b90506000612c4a82610dec565b90506002816007811115612c6057612c60613747565b14158015612c8057506006816007811115612c7d57612c7d613747565b14155b8015612c9e57506007816007811115612c9b57612c9b613747565b14155b612cea5760405162461bcd60e51b815260206004820152601d60248201527f476f7665726e6f723a2070726f706f73616c206e6f7420616374697665000000604482015260640161029e565b60008281526003602052604090819020600201805461ff001916610100179055517f789cf55be980739dad1d0699b93b58e806b51c9d96619bfa8fe0a28abaa7b30c90612d3a9084815260200190565b60405180910390a15095945050505050565b600081600003612d5e57506000919050565b60006001612d6b846132e2565b901c6001901b90506001818481612d8457612d84614294565b048201901c90506001818481612d9c57612d9c614294565b048201901c90506001818481612db457612db4614294565b048201901c90506001818481612dcc57612dcc614294565b048201901c90506001818481612de457612de4614294565b048201901c90506001818481612dfc57612dfc614294565b048201901c90506001818481612e1457612e14614294565b048201901c90506112ad81828581612e2e57612e2e614294565b04613376565b60005b81831015612e8a576000612e4b848461338c565b60008781526020902090915063ffffffff86169082015463ffffffff161115612e7657809250612e84565b612e818160016140a9565b93505b50612e37565b509392505050565b80516000906034811015612eaa576001915050610a5d565b82810160131901516001600160a01b031981166b046e0e4dee0dee6cae47a60f60a31b14612edd57600192505050610a5d565b600080612eeb602885613f66565b90505b83811015612f6257600080612f22888481518110612f0e57612f0e613f79565b01602001516001600160f81b0319166133a7565b9150915081612f3a5760019650505050505050610a5d565b8060ff166004856001600160a01b0316901b179350505080612f5b9061414c565b9050612eee565b50856001600160a01b0316816001600160a01b031614935050505092915050565b60006001600160401b03821115611d9f5760405162461bcd60e51b815260206004820152602660248201527f53616665436173743a2076616c756520646f65736e27742066697420696e203660448201526534206269747360d01b606482015260840161029e565b60606000612ff883613439565b604080516020808252818301909252919250600091906020820181803683375050509182525060208101929092525090565b604051630748d63560e31b81526001600160a01b038481166004830152602482018490526000917f000000000000000000000000000000000000000000000000000000000000000090911690633a46b1a890604401602060405180830381865afa15801561309c573d6000803e3d6000fd5b505050506040513d601f19601f820116820180604052508101906112aa9190614090565b60008060026130d08460016140a9565b6130da91906142aa565b90508291505b81811015613113579050806002816130f881866142aa565b61310291906140a9565b61310c91906142aa565b90506130e0565b50919050565b8151156131295781518083602001fd5b8060405162461bcd60e51b815260040161029e91906136b6565b82546000908190801561328957600061316187611e25600185613f66565b60408051808201909152905463ffffffff808216808452600160201b9092046001600160e01b0316602084015291925090871610156131e25760405162461bcd60e51b815260206004820152601b60248201527f436865636b706f696e743a2064656372656173696e67206b6579730000000000604482015260640161029e565b805163ffffffff80881691160361322a578461320388611e25600186613f66565b80546001600160e01b0392909216600160201b0263ffffffff909216919091179055613279565b6040805180820190915263ffffffff80881682526001600160e01b0380881660208085019182528b54600181018d5560008d81529190912094519151909216600160201b029216919091179101555b602001519250839150612aa89050565b50506040805180820190915263ffffffff80851682526001600160e01b0380851660208085019182528854600181018a5560008a815291822095519251909316600160201b029190931617920191909155905081612aa8565b600080608083901c156132f757608092831c92015b604083901c1561330957604092831c92015b602083901c1561331b57602092831c92015b601083901c1561332d57601092831c92015b600883901c1561333f57600892831c92015b600483901c1561335157600492831c92015b600283901c1561336357600292831c92015b600183901c15610a5d5760010192915050565b600081831061338557816112ad565b5090919050565b600061339b60028484186142aa565b6112ad908484166140a9565b60008060f883901c602f811180156133c25750603a8160ff16105b156133d757600194602f199091019350915050565b8060ff1660401080156133ed575060478160ff16105b15613402576001946036199091019350915050565b8060ff166060108015613418575060678160ff16105b1561342d576001946056199091019350915050565b50600093849350915050565b600060ff8216601f811115610a5d57604051632cd44ac360e21b815260040160405180910390fd5b60006020828403121561347357600080fd5b81356001600160e01b0319811681146112ad57600080fd5b803560ff81168114610fc557600080fd5b60008083601f8401126134ae57600080fd5b5081356001600160401b038111156134c557600080fd5b6020830191508360208285010111156134dd57600080fd5b9250929050565b634e487b7160e01b600052604160045260246000fd5b604051601f8201601f191681016001600160401b0381118282101715613522576135226134e4565b604052919050565b60006001600160401b03821115613543576135436134e4565b50601f01601f191660200190565b600082601f83011261356257600080fd5b81356135756135708261352a565b6134fa565b81815284602083860101111561358a57600080fd5b816020850160208301376000918101602001919091529392505050565b60008060008060008060008060e0898b0312156135c357600080fd5b883597506135d360208a0161348b565b965060408901356001600160401b03808211156135ef57600080fd5b6135fb8c838d0161349c565b909850965060608b013591508082111561361457600080fd5b506136218b828c01613551565b94505061363060808a0161348b565b925060a0890135915060c089013590509295985092959890939650565b60006020828403121561365f57600080fd5b5035919050565b60005b83811015613681578181015183820152602001613669565b50506000910152565b600081518084526136a2816020860160208601613666565b601f01601f19169290920160200192915050565b6020815260006112ad602083018461368a565b80356001600160a01b0381168114610fc557600080fd5b600080600080608085870312156136f657600080fd5b6136ff856136c9565b935061370d602086016136c9565b92506040850135915060608501356001600160401b0381111561372f57600080fd5b61373b87828801613551565b91505092959194509250565b634e487b7160e01b600052602160045260246000fd5b608081016004861061377157613771613747565b9481526020810193909352604083019190915260609091015290565b60006001600160401b038211156137a6576137a66134e4565b5060051b60200190565b600082601f8301126137c157600080fd5b813560206137d16135708361378d565b82815260059290921b840181019181810190868411156137f057600080fd5b8286015b8481101561381257613805816136c9565b83529183019183016137f4565b509695505050505050565b600082601f83011261382e57600080fd5b8135602061383e6135708361378d565b82815260059290921b8401810191818101908684111561385d57600080fd5b8286015b848110156138125780358352918301918301613861565b600082601f83011261388957600080fd5b813560206138996135708361378d565b82815260059290921b840181019181810190868411156138b857600080fd5b8286015b848110156138125780356001600160401b038111156138db5760008081fd5b6138e98986838b0101613551565b8452509183019183016138bc565b6000806000806080858703121561390d57600080fd5b84356001600160401b038082111561392457600080fd5b613930888389016137b0565b9550602087013591508082111561394657600080fd5b6139528883890161381d565b9450604087013591508082111561396857600080fd5b5061397587828801613878565b949793965093946060013593505050565b600080600080600060a0868803121561399e57600080fd5b853594506139ae6020870161348b565b93506139bc6040870161348b565b94979396509394606081013594506080013592915050565b60208101600883106139e8576139e8613747565b91905290565b60008060408385031215613a0157600080fd5b82359150613a11602084016136c9565b90509250929050565b60008060408385031215613a2d57600080fd5b82359150613a116020840161348b565b600080600080600060808688031215613a5557600080fd5b85359450613a656020870161348b565b935060408601356001600160401b0380821115613a8157600080fd5b613a8d89838a0161349c565b90955093506060880135915080821115613aa657600080fd5b50613ab388828901613551565b9150509295509295909350565b60008060008060608587031215613ad657600080fd5b84359350613ae66020860161348b565b925060408501356001600160401b03811115613b0157600080fd5b613b0d8782880161349c565b95989497509550505050565b60008060008060808587031215613b2f57600080fd5b84356001600160401b0380821115613b4657600080fd5b613b52888389016137b0565b95506020870135915080821115613b6857600080fd5b613b748883890161381d565b94506040870135915080821115613b8a57600080fd5b613b9688838901613878565b93506060870135915080821115613bac57600080fd5b5061373b87828801613551565b600081518084526020808501945080840160005b83811015613be957815187529582019590820190600101613bcd565b509495945050505050565b60ff60f81b8816815260e060208201526000613c1360e083018961368a565b8281036040840152613c25818961368a565b606084018890526001600160a01b038716608085015260a0840186905283810360c08501529050610b5d8185613bb9565b600080600060608486031215613c6b57600080fd5b613c74846136c9565b92506020840135915060408401356001600160401b03811115613c9657600080fd5b613ca286828701613551565b9150509250925092565b600080600080600060a08688031215613cc457600080fd5b613ccd866136c9565b9450613cdb602087016136c9565b935060408601356001600160401b0380821115613cf757600080fd5b613d0389838a0161381d565b94506060880135915080821115613d1957600080fd5b613d2589838a0161381d565b93506080880135915080821115613aa657600080fd5b60008060008060608587031215613d5157600080fd5b613d5a856136c9565b93506020850135925060408501356001600160401b03811115613b0157600080fd5b600080600060608486031215613d9157600080fd5b8335925060208401356001600160401b03811115613dae57600080fd5b613dba86828701613551565b925050604084013560048110613dcf57600080fd5b809150509250925092565b60008060408385031215613ded57600080fd5b613df6836136c9565b946020939093013593505050565b600080600080600060a08688031215613e1c57600080fd5b613e25866136c9565b9450613e33602087016136c9565b9350604086013592506060860135915060808601356001600160401b03811115613e5c57600080fd5b613ab388828901613551565b8183823760009101908152919050565b60208082526018908201527f476f7665726e6f723a206f6e6c79476f7665726e616e63650000000000000000604082015260600190565b600181811c90821680613ec357607f821691505b60208210810361311357634e487b7160e01b600052602260045260246000fd5b600060208284031215613ef557600080fd5b81516001600160401b03811115613f0b57600080fd5b8201601f81018413613f1c57600080fd5b8051613f2a6135708261352a565b818152856020838501011115613f3f57600080fd5b611183826020830160208601613666565b634e487b7160e01b600052601160045260246000fd5b81810381811115610a5d57610a5d613f50565b634e487b7160e01b600052603260045260246000fd5b600060208284031215613fa157600080fd5b815165ffffffffffff811681146112ad57600080fd5b600081518084526020808501945080840160005b83811015613be95781516001600160a01b031687529582019590820190600101613fcb565b600081518084526020808501808196508360051b8101915082860160005b8581101561403857828403895261402684835161368a565b9885019893509084019060010161400e565b5091979650505050505050565b6080815260006140586080830187613fb7565b828103602084015261406a8187613bb9565b9050828103604084015261407e8186613ff0565b91505082606083015295945050505050565b6000602082840312156140a257600080fd5b5051919050565b80820180821115610a5d57610a5d613f50565b6040815260006140cf604083018561368a565b90508260208301529392505050565b84815260ff84166020820152826040820152608060608201526000610efe608083018461368a565b85815260ff8516602082015283604082015260a06060820152600061412e60a083018561368a565b8281036080840152614140818561368a565b98975050505050505050565b60006001820161415e5761415e613f50565b5060010190565b60208082526021908201527f476f7665726e6f723a20696e76616c69642070726f706f73616c206c656e67746040820152600d60fb1b606082015260800190565b60006101208b8352602060018060a01b038c16818501528160408501526141cf8285018c613fb7565b915083820360608501526141e3828b613bb9565b915083820360808501528189518084528284019150828160051b850101838c0160005b8381101561423457601f1987840301855261422283835161368a565b94860194925090850190600101614206565b505086810360a0880152614248818c613ff0565b9450505050508560c08401528460e084015282810361010084015261426d818561368a565b9c9b505050505050505050505050565b8082028115828204841417610a5d57610a5d613f50565b634e487b7160e01b600052601260045260246000fd5b6000826142c757634e487b7160e01b600052601260045260246000fd5b500490565b600082516142de818460208701613666565b919091019291505056fe476f7665726e6f723a2072656c617920726576657274656420776974686f7574206d657373616765476f7665726e6f723a2063616c6c20726576657274656420776974686f7574206d657373616765a2646970667358221220243fe69f2ed8939dc612bf268d9aff5430c031b2a6d1c69996b011f12029a84b64736f6c63430008140033",
  "linkReferences": {},
  "deployedLinkReferences": {}
}