{
  "_format": "hh-sol-artifact-1",
  "contractName": "FundingContract",
  "sourceName": "contracts/FundingContract.sol",
  "abi": [
    {
      "inputs": [
        {
          "internalType": "address",
          "name": "_rewardToken",
          "type": "address"
        },
        {
          "internalType": "address",
          "name": "_projectDAO",
          "type": "address"
        }
      ],
      "stateMutability": "nonpayable",
      "type": "constructor"
    },
    {
      "anonymous": false,
      "inputs": [
        {
          "indexed": true,
          "internalType": "uint256",
          "name": "projectId",
          "type": "uint256"
        },
        {
          "indexed": true,
          "internalType": "address",
          "name": "contributor",
          "type": "address"
        },
        {
          "indexed": false,
          "internalType": "uint256",
          "name": "amount",
          "type": "uint256"
        },
        {
          "indexed": false,
          "internalType": "uint256",
          "name": "timestamp",
          "type": "uint256"
        }
      ],
      "name": "ContributionMade",
      "type": "event"
    },
    {
      "anonymous": false,
      "inputs": [
        {
          "indexed": true,
          "internalType": "uint256",
          "name": "projectId",
          "type": "uint256"
        },
        {
          "indexed": true,
          "internalType": "address",
          "name": "creator",
          "type": "address"
        },
        {
          "indexed": false,
          "internalType": "uint256",
          "name": "amount",
          "type": "uint256"
        }
      ],
      "name": "FundsWithdrawn",
      "type": "event"
    },
    {
      "anonymous": false,
      "inputs": [
        {
          "indexed": true,
          "internalType": "address",
          "name": "previousOwner",
          "type": "address"
        },
        {
          "indexed": true,
          "internalType": "address",
          "name": "newOwner",
          "type": "address"
        }
      ],
      "name": "OwnershipTransferred",
      "type": "event"
    },
    {
      "anonymous": false,
      "inputs": [
        {
          "indexed": true,
          "internalType": "uint256",
          "name": "projectId",
          "type": "uint256"
        },
        {
          "indexed": false,
          "internalType": "string",
          "name": "name",
          "type": "string"
        },
        {
          "indexed": true,
          "internalType": "address",
          "name": "creator",
          "type": "address"
        },
        {
          "indexed": false,
          "internalType": "uint256",
          "name": "fundingGoal",
          "type": "uint256"
        },
        {
          "indexed": false,
          "internalType": "uint256",
          "name": "deadline",
          "type": "uint256"
        }
      ],
      "name": "ProjectCreated",
      "type": "event"
    },
    {
      "anonymous": false,
      "inputs": [
        {
          "indexed": true,
          "internalType": "uint256",
          "name": "projectId",
          "type": "uint256"
        },
        {
          "indexed": false,
          "internalType": "uint256",
          "name": "totalAmount",
          "type": "uint256"
        }
      ],
      "name": "ProjectFunded",
      "type": "event"
    },
    {
      "inputs": [],
      "name": "MAX_FUNDING_PERIOD",
      "outputs": [
        {
          "internalType": "uint256",
          "name": "",
          "type": "uint256"
        }
      ],
      "stateMutability": "view",
      "type": "function"
    },
    {
      "inputs": [],
      "name": "MIN_FUNDING_GOAL",
      "outputs": [
        {
          "internalType": "uint256",
          "name": "",
          "type": "uint256"
        }
      ],
      "stateMutability": "view",
      "type": "function"
    },
    {
      "inputs": [],
      "name": "TOKEN_REWARD_RATE",
      "outputs": [
        {
          "internalType": "uint256",
          "name": "",
          "type": "uint256"
        }
      ],
      "stateMutability": "view",
      "type": "function"
    },
    {
      "inputs": [
        {
          "internalType": "uint256",
          "name": "_projectId",
          "type": "uint256"
        }
      ],
      "name": "contribute",
      "outputs": [],
      "stateMutability": "payable",
      "type": "function"
    },
    {
      "inputs": [
        {
          "internalType": "uint256",
          "name": "",
          "type": "uint256"
        },
        {
          "internalType": "address",
          "name": "",
          "type": "address"
        },
        {
          "internalType": "uint256",
          "name": "",
          "type": "uint256"
        }
      ],
      "name": "contributions",
      "outputs": [
        {
          "internalType": "uint256",
          "name": "amount",
          "type": "uint256"
        },
        {
          "internalType": "uint256",
          "name": "timestamp",
          "type": "uint256"
        }
      ],
      "stateMutability": "view",
      "type": "function"
    },
    {
      "inputs": [
        {
          "internalType": "string",
          "name": "_name",
          "type": "string"
        },
        {
          "internalType": "string",
          "name": "_description",
          "type": "string"
        },
        {
          "internalType": "uint256",
          "name": "_fundingGoal",
          "type": "uint256"
        },
        {
          "internalType": "uint256",
          "name": "_duration",
          "type": "uint256"
        }
      ],
      "name": "createProject",
      "outputs": [
        {
          "internalType": "uint256",
          "name": "",
          "type": "uint256"
        }
      ],
      "stateMutability": "nonpayable",
      "type": "function"
    },
    {
      "inputs": [
        {
          "internalType": "uint256",
          "name": "_projectId",
          "type": "uint256"
        },
        {
          "internalType": "string",
          "name": "_description",
          "type": "string"
        }
      ],
      "name": "createProposal",
      "outputs": [],
      "stateMutability": "nonpayable",
      "type": "function"
    },
    {
      "inputs": [
        {
          "internalType": "uint256",
          "name": "_projectId",
          "type": "uint256"
        },
        {
          "internalType": "address",
          "name": "_contributor",
          "type": "address"
        }
      ],
      "name": "getContributions",
      "outputs": [
        {
          "components": [
            {
              "internalType": "uint256",
              "name": "amount",
              "type": "uint256"
            },
            {
              "internalType": "uint256",
              "name": "timestamp",
              "type": "uint256"
            }
          ],
          "internalType": "struct FundingContract.Contribution[]",
          "name": "",
          "type": "tuple[]"
        }
      ],
      "stateMutability": "view",
      "type": "function"
    },
    {
      "inputs": [
        {
          "internalType": "uint256",
          "name": "_projectId",
          "type": "uint256"
        }
      ],
      "name": "getContributors",
      "outputs": [
        {
          "internalType": "address[]",
          "name": "",
          "type": "address[]"
        }
      ],
      "stateMutability": "view",
      "type": "function"
    },
    {
      "inputs": [
        {
          "internalType": "uint256",
          "name": "_projectId",
          "type": "uint256"
        }
      ],
      "name": "getProject",
      "outputs": [
        {
          "internalType": "string",
          "name": "name",
          "type": "string"
        },
        {
          "internalType": "string",
          "name": "description",
          "type": "string"
        },
        {
          "internalType": "address",
          "name": "creator",
          "type": "address"
        },
        {
          "internalType": "uint256",
          "name": "fundingGoal",
          "type": "uint256"
        },
        {
          "internalType": "uint256",
          "name": "currentFunding",
          "type": "uint256"
        },
        {
          "internalType": "uint256",
          "name": "deadline",
          "type": "uint256"
        },
        {
          "internalType": "bool",
          "name": "funded",
          "type": "bool"
        },
        {
          "internalType": "bool",
          "name": "exists",
          "type": "bool"
        }
      ],
      "stateMutability": "view",
      "type": "function"
    },
    {
      "inputs": [
        {
          "internalType": "uint256",
          "name": "_projectId",
          "type": "uint256"
        }
      ],
      "name": "getProjectVotes",
      "outputs": [
        {
          "internalType": "uint256",
          "name": "againstVotes",
          "type": "uint256"
        },
        {
          "internalType": "uint256",
          "name": "forVotes",
          "type": "uint256"
        },
        {
          "internalType": "uint256",
          "name": "abstainVotes",
          "type": "uint256"
        }
      ],
      "stateMutability": "view",
      "type": "function"
    },
    {
      "inputs": [],
      "name": "nextProjectId",
      "outputs": [
        {
          "internalType": "uint256",
          "name": "",
          "type": "uint256"
        }
      ],
      "stateMutability": "view",
      "type": "function"
    },
    {
      "inputs": [],
      "name": "owner",
      "outputs": [
        {
          "internalType": "address",
          "name": "",
          "type": "address"
        }
      ],
      "stateMutability": "view",
      "type": "function"
    },
    {
      "inputs": [
        {
          "internalType": "uint256",
          "name": "",
          "type": "uint256"
        },
        {
          "internalType": "uint256",
          "name": "",
          "type": "uint256"
        }
      ],
      "name": "projectContributors",
      "outputs": [
        {
          "internalType": "address",
          "name": "",
          "type": "address"
        }
      ],
      "stateMutability": "view",
      "type": "function"
    },
    {
      "inputs": [],
      "name": "projectDAO",
      "outputs": [
        {
          "internalType": "contract ProjectDAO",
          "name": "",
          "type": "address"
        }
      ],
      "stateMutability": "view",
      "type": "function"
    },
    {
      "inputs": [
        {
          "internalType": "uint256",
          "name": "",
          "type": "uint256"
        }
      ],
      "name": "projects",
      "outputs": [
        {
          "internalType": "string",
          "name": "name",
          "type": "string"
        },
        {
          "internalType": "string",
          "name": "description",
          "type": "string"
        },
        {
          "internalType": "address payable",
          "name": "creator",
          "type": "address"
        },
        {
          "internalType": "uint256",
          "name": "fundingGoal",
          "type": "uint256"
        },
        {
          "internalType": "uint256",
          "name": "currentFunding",
          "type": "uint256"
        },
        {
          "internalType": "uint256",
          "name": "deadline",
          "type": "uint256"
        },
        {
          "internalType": "bool",
          "name": "funded",
          "type": "bool"
        },
        {
          "internalType": "bool",
          "name": "exists",
          "type": "bool"
        }
      ],
      "stateMutability": "view",
      "type": "function"
    },
    {
      "inputs": [],
      "name": "renounceOwnership",
      "outputs": [],
      "stateMutability": "nonpayable",
      "type": "function"
    },
    {
      "inputs": [],
      "name": "rewardToken",
      "outputs": [
        {
          "internalType": "contract RewardToken",
          "name": "",
          "type": "address"
        }
      ],
      "stateMutability": "view",
      "type": "function"
    },
    {
      "inputs": [
        {
          "internalType": "address",
          "name": "newOwner",
          "type": "address"
        }
      ],
      "name": "transferOwnership",
      "outputs": [],
      "stateMutability": "nonpayable",
      "type": "function"
    },
    {
      "inputs": [
        {
          "internalType": "uint256",
          "name": "_projectId",
          "type": "uint256"
        }
      ],
      "name": "withdrawFunds",
      "outputs": [],
      "stateMutability": "nonpayable",
      "type": "function"
    }
  ],
  "bytecode": "0x60806040523480156200001157600080fd5b5060405162001961380380620019618339810160408190526200003491620000de565b6200003f3362000071565b600180546001600160a01b039384166001600160a01b0319918216179091556002805492909316911617905562000116565b600080546001600160a01b038381166001600160a01b0319831681178455604051919092169283917f8be0079c531659141344cd1fd0a4f28419497f9722a3daafe3b4186f6b6457e09190a35050565b80516001600160a01b0381168114620000d957600080fd5b919050565b60008060408385031215620000f257600080fd5b620000fd83620000c1565b91506200010d60208401620000c1565b90509250929050565b61183b80620001266000396000f3fe60806040526004361061011f5760003560e01c8063715018a6116100a0578063e935b7b111610064578063e935b7b114610346578063f0f3f2c81461035c578063f2fde38b1461037c578063f7c618c11461039c578063fdfda408146103bc57600080fd5b8063715018a6146102b35780638da5cb5b146102c857806394ba9709146102e6578063aafc92d614610306578063c1cbbca71461033357600080fd5b806336d95f56116100e757806336d95f56146101fd5780633c1ab00f146102195780633d3b6865146102465780636203a9951461027e5780636d24419a1461029357600080fd5b806302d52fa414610124578063107046bd14610146578063155dd5ee146101835780631dbcfc44146101a357806329af9b51146101d8575b600080fd5b34801561013057600080fd5b5061014461013f3660046112ae565b6103f7565b005b34801561015257600080fd5b506101666101613660046112f5565b610550565b60405161017a989796959493929190611354565b60405180910390f35b34801561018f57600080fd5b5061014461019e3660046112f5565b6106b1565b3480156101af57600080fd5b506101c36101be3660046113d8565b610813565b6040805192835260208301919091520161017a565b3480156101e457600080fd5b506101ef62278d0081565b60405190815260200161017a565b34801561020957600080fd5b506101ef67016345785d8a000081565b34801561022557600080fd5b506102396102343660046112f5565b61085d565b60405161017a919061140d565b34801561025257600080fd5b5061026661026136600461145a565b6108c9565b6040516001600160a01b03909116815260200161017a565b34801561028a57600080fd5b506101ef606481565b34801561029f57600080fd5b50600254610266906001600160a01b031681565b3480156102bf57600080fd5b50610144610901565b3480156102d457600080fd5b506000546001600160a01b0316610266565b3480156102f257600080fd5b506101ef61030136600461147c565b610915565b34801561031257600080fd5b506103266103213660046114f0565b610b07565b60405161017a919061151c565b6101446103413660046112f5565b610b99565b34801561035257600080fd5b506101ef60065481565b34801561036857600080fd5b506101666103773660046112f5565b610e48565b34801561038857600080fd5b5061014461039736600461156b565b610fdd565b3480156103a857600080fd5b50600154610266906001600160a01b031681565b3480156103c857600080fd5b506103dc6103d73660046112f5565b611056565b6040805193845260208401929092529082015260600161017a565b60008281526003602052604090206006810154610100900460ff166104375760405162461bcd60e51b815260040161042e9061158d565b60405180910390fd5b600681015460ff166104805760405162461bcd60e51b8152602060048201526012602482015271141c9bda9958dd081b9bdd08199d5b99195960721b604482015260640161042e565b60025460405163c5a86c2d60e01b81526000916001600160a01b03169063c5a86c2d906104b5908790879086906004016115bd565b6020604051808303816000875af11580156104d4573d6000803e3d6000fd5b505050506040513d601f19601f820116820180604052508101906104f89190611604565b90506000811161054a5760405162461bcd60e51b815260206004820152601960248201527f4661696c656420746f206372656174652070726f706f73616c00000000000000604482015260640161042e565b50505050565b60036020526000908152604090208054819061056b9061161d565b80601f01602080910402602001604051908101604052809291908181526020018280546105979061161d565b80156105e45780601f106105b9576101008083540402835291602001916105e4565b820191906000526020600020905b8154815290600101906020018083116105c757829003601f168201915b5050505050908060010180546105f99061161d565b80601f01602080910402602001604051908101604052809291908181526020018280546106259061161d565b80156106725780601f1061064757610100808354040283529160200191610672565b820191906000526020600020905b81548152906001019060200180831161065557829003601f168201915b505050600284015460038501546004860154600587015460069097015495966001600160a01b0390931695919450925060ff8082169161010090041688565b60008181526003602052604090206006810154610100900460ff166106e85760405162461bcd60e51b815260040161042e9061158d565b600681015460ff166107315760405162461bcd60e51b8152602060048201526012602482015271141c9bda9958dd081b9bdd08199d5b99195960721b604482015260640161042e565b60028101546001600160a01b0316331461078d5760405162461bcd60e51b815260206004820152601960248201527f4f6e6c792063726561746f722063616e20776974686472617700000000000000604482015260640161042e565b600481018054600091829055600283015460405191926001600160a01b039091169183156108fc0291849190818181858888f193505050501580156107d6573d6000803e3d6000fd5b50604051818152339084907ff440aec6b52895984d061d622e6edeba6210f7c3e059be920663140c084560d79060200160405180910390a3505050565b6004602052826000526040600020602052816000526040600020818154811061083b57600080fd5b6000918252602090912060029091020180546001909101549093509150839050565b6000818152600560209081526040918290208054835181840281018401909452808452606093928301828280156108bd57602002820191906000526020600020905b81546001600160a01b0316815260019091019060200180831161089f575b50505050509050919050565b600560205281600052604060002081815481106108e557600080fd5b6000918252602090912001546001600160a01b03169150829050565b610909611161565b61091360006111bb565b565b600067016345785d8a00008310156109665760405162461bcd60e51b815260206004820152601460248201527346756e64696e6720676f616c20746f6f206c6f7760601b604482015260640161042e565b62278d008211156109ad5760405162461bcd60e51b81526020600482015260116024820152704475726174696f6e20746f6f206c6f6e6760781b604482015260640161042e565b60068054600091826109be8361166d565b90915550905060006109d08442611686565b604080516101008101825289815260208082018a905233828401526060820189905260006080830181905260a0830185905260c08301819052600160e0840152868152600390915291909120815192935090918190610a2f90826116e7565b5060208201516001820190610a4490826116e7565b506040828101516002830180546001600160a01b0319166001600160a01b03909216919091179055606083015160038301556080830151600483015560a0830151600583015560c08301516006909201805460e09094015161ffff1990941692151561ff001916929092176101009315159390930292909217905551339083907fcfbb9cc3bd62a88127a0a357ef5745ce183a4f314f3f36a4302bbe74b89e2f1d90610af5908b908a9087906117a7565b60405180910390a35095945050505050565b60008281526004602090815260408083206001600160a01b03851684528252808320805482518185028101850190935280835260609492939192909184015b82821015610b8c57838290600052602060002090600202016040518060400160405290816000820154815260200160018201548152505081526020019060010190610b46565b5050505090505b92915050565b60008181526003602052604090206006810154610100900460ff16610bd05760405162461bcd60e51b815260040161042e9061158d565b80600501544210610c235760405162461bcd60e51b815260206004820152601c60248201527f50726f6a6563742066756e64696e6720706572696f6420656e64656400000000604482015260640161042e565b60003411610c7f5760405162461bcd60e51b815260206004820152602360248201527f436f6e747269627574696f6e206d75737420626520677265617465722074686160448201526206e20360ec1b606482015260840161042e565b34816004016000828254610c939190611686565b909155505060008281526004602090815260408083203380855281845282852083518085019094523484524284860190815281546001818101845583895287892096516002909202909601908155905190850155945290915290549003610d235760008281526005602090815260408220805460018101825590835291200180546001600160a01b031916331790555b6000670de0b6b3a7640000610d396064346117cc565b610d4391906117e3565b6001546040516340c10f1960e01b8152336004820152602481018390529192506001600160a01b0316906340c10f1990604401600060405180830381600087803b158015610d9057600080fd5b505af1158015610da4573d6000803e3d6000fd5b5050604080513481524260208201523393508692507ff9b7589b7a8d939b9da5dae90770378fe5fd7802be5d66432e85bedbdbfbcb7a910160405180910390a38160030154826004015410610e435760068201805460ff19166001179055600482015460405184917f26130d0cd3f6aa101d05e4a4f2ff016fd5b934363d17bdd03ff5dc03ec5934a991610e3a91815260200190565b60405180910390a25b505050565b60008181526003602081905260408220600281015491810154600482015460058301546006840154845460609788979096879687968796879687969495869560018701956001600160a01b03909216949193919260ff8082169261010090920416908890610eb59061161d565b80601f0160208091040260200160405190810160405280929190818152602001828054610ee19061161d565b8015610f2e5780601f10610f0357610100808354040283529160200191610f2e565b820191906000526020600020905b815481529060010190602001808311610f1157829003601f168201915b50505050509750868054610f419061161d565b80601f0160208091040260200160405190810160405280929190818152602001828054610f6d9061161d565b8015610fba5780601f10610f8f57610100808354040283529160200191610fba565b820191906000526020600020905b815481529060010190602001808311610f9d57829003601f168201915b505050505096509850985098509850985098509850985050919395975091939597565b610fe5611161565b6001600160a01b03811661104a5760405162461bcd60e51b815260206004820152602660248201527f4f776e61626c653a206e6577206f776e657220697320746865207a65726f206160448201526564647265737360d01b606482015260840161042e565b611053816111bb565b50565b6000818152600360205260408120600681015482918291610100900460ff166110915760405162461bcd60e51b815260040161042e9061158d565b6002546040516315a91d3960e21b8152600481018790526000916001600160a01b0316906356a474e490602401602060405180830381865afa1580156110db573d6000803e3d6000fd5b505050506040513d601f19601f820116820180604052508101906110ff9190611604565b9050600081116111515760405162461bcd60e51b815260206004820152601e60248201527f4e6f2070726f706f73616c2065786973747320666f722070726f6a6563740000604482015260640161042e565b5060009586955085945092505050565b6000546001600160a01b031633146109135760405162461bcd60e51b815260206004820181905260248201527f4f776e61626c653a2063616c6c6572206973206e6f7420746865206f776e6572604482015260640161042e565b600080546001600160a01b038381166001600160a01b0319831681178455604051919092169283917f8be0079c531659141344cd1fd0a4f28419497f9722a3daafe3b4186f6b6457e09190a35050565b634e487b7160e01b600052604160045260246000fd5b600082601f83011261123257600080fd5b813567ffffffffffffffff8082111561124d5761124d61120b565b604051601f8301601f19908116603f011681019082821181831017156112755761127561120b565b8160405283815286602085880101111561128e57600080fd5b836020870160208301376000602085830101528094505050505092915050565b600080604083850312156112c157600080fd5b82359150602083013567ffffffffffffffff8111156112df57600080fd5b6112eb85828601611221565b9150509250929050565b60006020828403121561130757600080fd5b5035919050565b6000815180845260005b8181101561133457602081850181015186830182015201611318565b506000602082860101526020601f19601f83011685010191505092915050565b60006101008083526113688184018c61130e565b9050828103602084015261137c818b61130e565b6001600160a01b0399909916604084015250506060810195909552608085019390935260a0840191909152151560c0830152151560e09091015292915050565b80356001600160a01b03811681146113d357600080fd5b919050565b6000806000606084860312156113ed57600080fd5b833592506113fd602085016113bc565b9150604084013590509250925092565b6020808252825182820181905260009190848201906040850190845b8181101561144e5783516001600160a01b031683529284019291840191600101611429565b50909695505050505050565b6000806040838503121561146d57600080fd5b50508035926020909101359150565b6000806000806080858703121561149257600080fd5b843567ffffffffffffffff808211156114aa57600080fd5b6114b688838901611221565b955060208701359150808211156114cc57600080fd5b506114d987828801611221565b949794965050505060408301359260600135919050565b6000806040838503121561150357600080fd5b82359150611513602084016113bc565b90509250929050565b602080825282518282018190526000919060409081850190868401855b8281101561155e57815180518552860151868501529284019290850190600101611539565b5091979650505050505050565b60006020828403121561157d57600080fd5b611586826113bc565b9392505050565b602080825260169082015275141c9bda9958dd08191bd95cc81b9bdd08195e1a5cdd60521b604082015260600190565b8381526060602082015260006115d6606083018561130e565b9050600483106115f657634e487b7160e01b600052602160045260246000fd5b826040830152949350505050565b60006020828403121561161657600080fd5b5051919050565b600181811c9082168061163157607f821691505b60208210810361165157634e487b7160e01b600052602260045260246000fd5b50919050565b634e487b7160e01b600052601160045260246000fd5b60006001820161167f5761167f611657565b5060010190565b80820180821115610b9357610b93611657565b601f821115610e4357600081815260208120601f850160051c810160208610156116c05750805b601f850160051c820191505b818110156116df578281556001016116cc565b505050505050565b815167ffffffffffffffff8111156117015761170161120b565b6117158161170f845461161d565b84611699565b602080601f83116001811461174a57600084156117325750858301515b600019600386901b1c1916600185901b1785556116df565b600085815260208120601f198616915b828110156117795788860151825594840194600190910190840161175a565b50858210156117975787850151600019600388901b60f8161c191681555b5050505050600190811b01905550565b6060815260006117ba606083018661130e565b60208301949094525060400152919050565b8082028115828204841417610b9357610b93611657565b60008261180057634e487b7160e01b600052601260045260246000fd5b50049056fea2646970667358221220f498da97aab5354786a6d49cc01252043f1755ca00a346a806d1ebee3a44a3dc64736f6c63430008140033",
  "linkReferences": {},
  "deployedLinkReferences": {}
}